{
  "address": "0x41dB0fC8B00526DC1f316E6fa93AC4b98E07CED9",
  "abi": [
    {
      "inputs": [
        {
          "internalType": "address",
          "name": "_layerZeroEndpoint",
          "type": "address"
        },
        {
          "internalType": "uint8",
          "name": "_sharedDecimals",
          "type": "uint8"
        }
      ],
      "stateMutability": "nonpayable",
      "type": "constructor"
    },
    {
      "anonymous": false,
      "inputs": [
        {
          "indexed": true,
          "internalType": "address",
          "name": "owner",
          "type": "address"
        },
        {
          "indexed": true,
          "internalType": "address",
          "name": "spender",
          "type": "address"
        },
        {
          "indexed": false,
          "internalType": "uint256",
          "name": "value",
          "type": "uint256"
        }
      ],
      "name": "Approval",
      "type": "event"
    },
    {
      "anonymous": false,
      "inputs": [
        {
          "indexed": true,
          "internalType": "uint16",
          "name": "_srcChainId",
          "type": "uint16"
        },
        {
          "indexed": false,
          "internalType": "bytes",
          "name": "_srcAddress",
          "type": "bytes"
        },
        {
          "indexed": false,
          "internalType": "uint64",
          "name": "_nonce",
          "type": "uint64"
        },
        {
          "indexed": false,
          "internalType": "bytes32",
          "name": "_hash",
          "type": "bytes32"
        }
      ],
      "name": "CallOFTReceivedSuccess",
      "type": "event"
    },
    {
      "anonymous": false,
      "inputs": [
        {
          "indexed": false,
          "internalType": "address",
          "name": "_asset",
          "type": "address"
        },
        {
          "indexed": false,
          "internalType": "bool",
          "name": "state",
          "type": "bool"
        }
      ],
      "name": "EmergencyStopMintingCollateral",
      "type": "event"
    },
    {
      "anonymous": false,
      "inputs": [
        {
          "indexed": false,
          "internalType": "uint16",
          "name": "_srcChainId",
          "type": "uint16"
        },
        {
          "indexed": false,
          "internalType": "bytes",
          "name": "_srcAddress",
          "type": "bytes"
        },
        {
          "indexed": false,
          "internalType": "uint64",
          "name": "_nonce",
          "type": "uint64"
        },
        {
          "indexed": false,
          "internalType": "bytes",
          "name": "_payload",
          "type": "bytes"
        },
        {
          "indexed": false,
          "internalType": "bytes",
          "name": "_reason",
          "type": "bytes"
        }
      ],
      "name": "MessageFailed",
      "type": "event"
    },
    {
      "anonymous": false,
      "inputs": [
        {
          "indexed": false,
          "internalType": "address",
          "name": "_address",
          "type": "address"
        }
      ],
      "name": "NonContractAddress",
      "type": "event"
    },
    {
      "anonymous": false,
      "inputs": [
        {
          "indexed": true,
          "internalType": "address",
          "name": "previousOwner",
          "type": "address"
        },
        {
          "indexed": true,
          "internalType": "address",
          "name": "newOwner",
          "type": "address"
        }
      ],
      "name": "OwnershipTransferred",
      "type": "event"
    },
    {
      "anonymous": false,
      "inputs": [
        {
          "indexed": true,
          "internalType": "uint16",
          "name": "_srcChainId",
          "type": "uint16"
        },
        {
          "indexed": true,
          "internalType": "address",
          "name": "_to",
          "type": "address"
        },
        {
          "indexed": false,
          "internalType": "uint256",
          "name": "_amount",
          "type": "uint256"
        }
      ],
      "name": "ReceiveFromChain",
      "type": "event"
    },
    {
      "anonymous": false,
      "inputs": [
        {
          "indexed": false,
          "internalType": "uint16",
          "name": "_srcChainId",
          "type": "uint16"
        },
        {
          "indexed": false,
          "internalType": "bytes",
          "name": "_srcAddress",
          "type": "bytes"
        },
        {
          "indexed": false,
          "internalType": "uint64",
          "name": "_nonce",
          "type": "uint64"
        },
        {
          "indexed": false,
          "internalType": "bytes32",
          "name": "_payloadHash",
          "type": "bytes32"
        }
      ],
      "name": "RetryMessageSuccess",
      "type": "event"
    },
    {
      "anonymous": false,
      "inputs": [
        {
          "indexed": true,
          "internalType": "uint16",
          "name": "_dstChainId",
          "type": "uint16"
        },
        {
          "indexed": true,
          "internalType": "address",
          "name": "_from",
          "type": "address"
        },
        {
          "indexed": true,
          "internalType": "bytes32",
          "name": "_toAddress",
          "type": "bytes32"
        },
        {
          "indexed": false,
          "internalType": "uint256",
          "name": "_amount",
          "type": "uint256"
        }
      ],
      "name": "SendToChain",
      "type": "event"
    },
    {
      "anonymous": false,
      "inputs": [
        {
          "indexed": false,
          "internalType": "uint16",
          "name": "feeBp",
          "type": "uint16"
        }
      ],
      "name": "SetDefaultFeeBp",
      "type": "event"
    },
    {
      "anonymous": false,
      "inputs": [
        {
          "indexed": false,
          "internalType": "uint16",
          "name": "dstchainId",
          "type": "uint16"
        },
        {
          "indexed": false,
          "internalType": "bool",
          "name": "enabled",
          "type": "bool"
        },
        {
          "indexed": false,
          "internalType": "uint16",
          "name": "feeBp",
          "type": "uint16"
        }
      ],
      "name": "SetFeeBp",
      "type": "event"
    },
    {
      "anonymous": false,
      "inputs": [
        {
          "indexed": false,
          "internalType": "address",
          "name": "feeOwner",
          "type": "address"
        }
      ],
      "name": "SetFeeOwner",
      "type": "event"
    },
    {
      "anonymous": false,
      "inputs": [
        {
          "indexed": false,
          "internalType": "uint16",
          "name": "_dstChainId",
          "type": "uint16"
        },
        {
          "indexed": false,
          "internalType": "uint16",
          "name": "_type",
          "type": "uint16"
        },
        {
          "indexed": false,
          "internalType": "uint256",
          "name": "_minDstGas",
          "type": "uint256"
        }
      ],
      "name": "SetMinDstGas",
      "type": "event"
    },
    {
      "anonymous": false,
      "inputs": [
        {
          "indexed": false,
          "internalType": "address",
          "name": "precrime",
          "type": "address"
        }
      ],
      "name": "SetPrecrime",
      "type": "event"
    },
    {
      "anonymous": false,
      "inputs": [
        {
          "indexed": false,
          "internalType": "uint16",
          "name": "_remoteChainId",
          "type": "uint16"
        },
        {
          "indexed": false,
          "internalType": "bytes",
          "name": "_path",
          "type": "bytes"
        }
      ],
      "name": "SetTrustedRemote",
      "type": "event"
    },
    {
      "anonymous": false,
      "inputs": [
        {
          "indexed": false,
          "internalType": "uint16",
          "name": "_remoteChainId",
          "type": "uint16"
        },
        {
          "indexed": false,
          "internalType": "bytes",
          "name": "_remoteAddress",
          "type": "bytes"
        }
      ],
      "name": "SetTrustedRemoteAddress",
      "type": "event"
    },
    {
      "anonymous": false,
      "inputs": [
        {
          "indexed": false,
          "internalType": "bool",
          "name": "_useCustomAdapterParams",
          "type": "bool"
        }
      ],
      "name": "SetUseCustomAdapterParams",
      "type": "event"
    },
    {
      "anonymous": false,
      "inputs": [
        {
          "indexed": true,
          "internalType": "address",
          "name": "from",
          "type": "address"
        },
        {
          "indexed": true,
          "internalType": "address",
          "name": "to",
          "type": "address"
        },
        {
          "indexed": false,
          "internalType": "uint256",
          "name": "value",
          "type": "uint256"
        }
      ],
      "name": "Transfer",
      "type": "event"
    },
    {
      "inputs": [],
      "name": "BP_DENOMINATOR",
      "outputs": [
        {
          "internalType": "uint256",
          "name": "",
          "type": "uint256"
        }
      ],
      "stateMutability": "view",
      "type": "function"
    },
    {
      "inputs": [],
      "name": "DEFAULT_PAYLOAD_SIZE_LIMIT",
      "outputs": [
        {
          "internalType": "uint256",
          "name": "",
          "type": "uint256"
        }
      ],
      "stateMutability": "view",
      "type": "function"
    },
    {
      "inputs": [],
      "name": "NO_EXTRA_GAS",
      "outputs": [
        {
          "internalType": "uint256",
          "name": "",
          "type": "uint256"
        }
      ],
      "stateMutability": "view",
      "type": "function"
    },
    {
      "inputs": [],
      "name": "PT_SEND",
      "outputs": [
        {
          "internalType": "uint8",
          "name": "",
          "type": "uint8"
        }
      ],
      "stateMutability": "view",
      "type": "function"
    },
    {
      "inputs": [],
      "name": "PT_SEND_AND_CALL",
      "outputs": [
        {
          "internalType": "uint8",
          "name": "",
          "type": "uint8"
        }
      ],
      "stateMutability": "view",
      "type": "function"
    },
    {
      "inputs": [
        {
          "internalType": "address",
          "name": "owner",
          "type": "address"
        },
        {
          "internalType": "address",
          "name": "spender",
          "type": "address"
        }
      ],
      "name": "allowance",
      "outputs": [
        {
          "internalType": "uint256",
          "name": "",
          "type": "uint256"
        }
      ],
      "stateMutability": "view",
      "type": "function"
    },
    {
      "inputs": [
        {
          "internalType": "address",
          "name": "spender",
          "type": "address"
        },
        {
          "internalType": "uint256",
          "name": "amount",
          "type": "uint256"
        }
      ],
      "name": "approve",
      "outputs": [
        {
          "internalType": "bool",
          "name": "",
          "type": "bool"
        }
      ],
      "stateMutability": "nonpayable",
      "type": "function"
    },
    {
      "inputs": [
        {
          "internalType": "address",
          "name": "account",
          "type": "address"
        }
      ],
      "name": "balanceOf",
      "outputs": [
        {
          "internalType": "uint256",
          "name": "",
          "type": "uint256"
        }
      ],
      "stateMutability": "view",
      "type": "function"
    },
    {
      "inputs": [],
      "name": "borrowerOperationsAddress",
      "outputs": [
        {
          "internalType": "address",
          "name": "",
          "type": "address"
        }
      ],
      "stateMutability": "view",
      "type": "function"
    },
    {
      "inputs": [
        {
          "internalType": "address",
          "name": "_account",
          "type": "address"
        },
        {
          "internalType": "uint256",
          "name": "_amount",
          "type": "uint256"
        }
      ],
      "name": "burn",
      "outputs": [],
      "stateMutability": "nonpayable",
      "type": "function"
    },
    {
      "inputs": [
        {
          "internalType": "uint16",
          "name": "_srcChainId",
          "type": "uint16"
        },
        {
          "internalType": "bytes",
          "name": "_srcAddress",
          "type": "bytes"
        },
        {
          "internalType": "uint64",
          "name": "_nonce",
          "type": "uint64"
        },
        {
          "internalType": "bytes32",
          "name": "_from",
          "type": "bytes32"
        },
        {
          "internalType": "address",
          "name": "_to",
          "type": "address"
        },
        {
          "internalType": "uint256",
          "name": "_amount",
          "type": "uint256"
        },
        {
          "internalType": "bytes",
          "name": "_payload",
          "type": "bytes"
        },
        {
          "internalType": "uint256",
          "name": "_gasForCall",
          "type": "uint256"
        }
      ],
      "name": "callOnOFTReceived",
      "outputs": [],
      "stateMutability": "nonpayable",
      "type": "function"
    },
    {
      "inputs": [
        {
          "internalType": "uint16",
          "name": "",
          "type": "uint16"
        }
      ],
      "name": "chainIdToFeeBps",
      "outputs": [
        {
          "internalType": "uint16",
          "name": "feeBP",
          "type": "uint16"
        },
        {
          "internalType": "bool",
          "name": "enabled",
          "type": "bool"
        }
      ],
      "stateMutability": "view",
      "type": "function"
    },
    {
      "inputs": [],
      "name": "circulatingSupply",
      "outputs": [
        {
          "internalType": "uint256",
          "name": "",
          "type": "uint256"
        }
      ],
      "stateMutability": "view",
      "type": "function"
    },
    {
      "inputs": [
        {
          "internalType": "uint16",
          "name": "",
          "type": "uint16"
        },
        {
          "internalType": "bytes",
          "name": "",
          "type": "bytes"
        },
        {
          "internalType": "uint64",
          "name": "",
          "type": "uint64"
        }
      ],
      "name": "creditedPackets",
      "outputs": [
        {
          "internalType": "bool",
          "name": "",
          "type": "bool"
        }
      ],
      "stateMutability": "view",
      "type": "function"
    },
    {
      "inputs": [],
      "name": "decimals",
      "outputs": [
        {
          "internalType": "uint8",
          "name": "",
          "type": "uint8"
        }
      ],
      "stateMutability": "view",
      "type": "function"
    },
    {
      "inputs": [
        {
          "internalType": "address",
          "name": "spender",
          "type": "address"
        },
        {
          "internalType": "uint256",
          "name": "subtractedValue",
          "type": "uint256"
        }
      ],
      "name": "decreaseAllowance",
      "outputs": [
        {
          "internalType": "bool",
          "name": "",
          "type": "bool"
        }
      ],
      "stateMutability": "nonpayable",
      "type": "function"
    },
    {
      "inputs": [],
      "name": "defaultFeeBp",
      "outputs": [
        {
          "internalType": "uint16",
          "name": "",
          "type": "uint16"
        }
      ],
      "stateMutability": "view",
      "type": "function"
    },
    {
      "inputs": [
        {
          "internalType": "address",
          "name": "_asset",
          "type": "address"
        },
        {
          "internalType": "bool",
          "name": "status",
          "type": "bool"
        }
      ],
      "name": "emergencyStopMinting",
      "outputs": [],
      "stateMutability": "nonpayable",
      "type": "function"
    },
    {
      "inputs": [
        {
          "internalType": "address",
          "name": "",
          "type": "address"
        }
      ],
      "name": "emergencyStopMintingCollateral",
      "outputs": [
        {
          "internalType": "bool",
          "name": "",
          "type": "bool"
        }
      ],
      "stateMutability": "view",
      "type": "function"
    },
    {
      "inputs": [
        {
          "internalType": "uint16",
          "name": "_dstChainId",
          "type": "uint16"
        },
        {
          "internalType": "bytes32",
          "name": "_toAddress",
          "type": "bytes32"
        },
        {
          "internalType": "uint256",
          "name": "_amount",
          "type": "uint256"
        },
        {
          "internalType": "bytes",
          "name": "_payload",
          "type": "bytes"
        },
        {
          "internalType": "uint64",
          "name": "_dstGasForCall",
          "type": "uint64"
        },
        {
          "internalType": "bool",
          "name": "_useZro",
          "type": "bool"
        },
        {
          "internalType": "bytes",
          "name": "_adapterParams",
          "type": "bytes"
        }
      ],
      "name": "estimateSendAndCallFee",
      "outputs": [
        {
          "internalType": "uint256",
          "name": "nativeFee",
          "type": "uint256"
        },
        {
          "internalType": "uint256",
          "name": "zroFee",
          "type": "uint256"
        }
      ],
      "stateMutability": "view",
      "type": "function"
    },
    {
      "inputs": [
        {
          "internalType": "uint16",
          "name": "_dstChainId",
          "type": "uint16"
        },
        {
          "internalType": "bytes32",
          "name": "_toAddress",
          "type": "bytes32"
        },
        {
          "internalType": "uint256",
          "name": "_amount",
          "type": "uint256"
        },
        {
          "internalType": "bool",
          "name": "_useZro",
          "type": "bool"
        },
        {
          "internalType": "bytes",
          "name": "_adapterParams",
          "type": "bytes"
        }
      ],
      "name": "estimateSendFee",
      "outputs": [
        {
          "internalType": "uint256",
          "name": "nativeFee",
          "type": "uint256"
        },
        {
          "internalType": "uint256",
          "name": "zroFee",
          "type": "uint256"
        }
      ],
      "stateMutability": "view",
      "type": "function"
    },
    {
      "inputs": [
        {
          "internalType": "uint16",
          "name": "",
          "type": "uint16"
        },
        {
          "internalType": "bytes",
          "name": "",
          "type": "bytes"
        },
        {
          "internalType": "uint64",
          "name": "",
          "type": "uint64"
        }
      ],
      "name": "failedMessages",
      "outputs": [
        {
          "internalType": "bytes32",
          "name": "",
          "type": "bytes32"
        }
      ],
      "stateMutability": "view",
      "type": "function"
    },
    {
      "inputs": [],
      "name": "feeOwner",
      "outputs": [
        {
          "internalType": "address",
          "name": "",
          "type": "address"
        }
      ],
      "stateMutability": "view",
      "type": "function"
    },
    {
      "inputs": [
        {
          "internalType": "uint16",
          "name": "_srcChainId",
          "type": "uint16"
        },
        {
          "internalType": "bytes",
          "name": "_srcAddress",
          "type": "bytes"
        }
      ],
      "name": "forceResumeReceive",
      "outputs": [],
      "stateMutability": "nonpayable",
      "type": "function"
    },
    {
      "inputs": [
        {
          "internalType": "uint16",
          "name": "_version",
          "type": "uint16"
        },
        {
          "internalType": "uint16",
          "name": "_chainId",
          "type": "uint16"
        },
        {
          "internalType": "address",
          "name": "",
          "type": "address"
        },
        {
          "internalType": "uint256",
          "name": "_configType",
          "type": "uint256"
        }
      ],
      "name": "getConfig",
      "outputs": [
        {
          "internalType": "bytes",
          "name": "",
          "type": "bytes"
        }
      ],
      "stateMutability": "view",
      "type": "function"
    },
    {
      "inputs": [
        {
          "internalType": "uint16",
          "name": "_remoteChainId",
          "type": "uint16"
        }
      ],
      "name": "getTrustedRemoteAddress",
      "outputs": [
        {
          "internalType": "bytes",
          "name": "",
          "type": "bytes"
        }
      ],
      "stateMutability": "view",
      "type": "function"
    },
    {
      "inputs": [
        {
          "internalType": "address",
          "name": "spender",
          "type": "address"
        },
        {
          "internalType": "uint256",
          "name": "addedValue",
          "type": "uint256"
        }
      ],
      "name": "increaseAllowance",
      "outputs": [
        {
          "internalType": "bool",
          "name": "",
          "type": "bool"
        }
      ],
      "stateMutability": "nonpayable",
      "type": "function"
    },
    {
      "inputs": [
        {
          "internalType": "uint16",
          "name": "_srcChainId",
          "type": "uint16"
        },
        {
          "internalType": "bytes",
          "name": "_srcAddress",
          "type": "bytes"
        }
      ],
      "name": "isTrustedRemote",
      "outputs": [
        {
          "internalType": "bool",
          "name": "",
          "type": "bool"
        }
      ],
      "stateMutability": "view",
      "type": "function"
    },
    {
      "inputs": [],
      "name": "lzEndpoint",
      "outputs": [
        {
          "internalType": "contract ILayerZeroEndpoint",
          "name": "",
          "type": "address"
        }
      ],
      "stateMutability": "view",
      "type": "function"
    },
    {
      "inputs": [
        {
          "internalType": "uint16",
          "name": "_srcChainId",
          "type": "uint16"
        },
        {
          "internalType": "bytes",
          "name": "_srcAddress",
          "type": "bytes"
        },
        {
          "internalType": "uint64",
          "name": "_nonce",
          "type": "uint64"
        },
        {
          "internalType": "bytes",
          "name": "_payload",
          "type": "bytes"
        }
      ],
      "name": "lzReceive",
      "outputs": [],
      "stateMutability": "nonpayable",
      "type": "function"
    },
    {
      "inputs": [
        {
          "internalType": "uint16",
          "name": "",
          "type": "uint16"
        },
        {
          "internalType": "uint16",
          "name": "",
          "type": "uint16"
        }
      ],
      "name": "minDstGasLookup",
      "outputs": [
        {
          "internalType": "uint256",
          "name": "",
          "type": "uint256"
        }
      ],
      "stateMutability": "view",
      "type": "function"
    },
    {
      "inputs": [
        {
          "internalType": "address",
          "name": "_asset",
          "type": "address"
        },
        {
          "internalType": "address",
          "name": "_account",
          "type": "address"
        },
        {
          "internalType": "uint256",
          "name": "_amount",
          "type": "uint256"
        }
      ],
      "name": "mint",
      "outputs": [],
      "stateMutability": "nonpayable",
      "type": "function"
    },
    {
      "inputs": [],
      "name": "name",
      "outputs": [
        {
          "internalType": "string",
          "name": "",
          "type": "string"
        }
      ],
      "stateMutability": "view",
      "type": "function"
    },
    {
      "inputs": [
        {
          "internalType": "uint16",
          "name": "_srcChainId",
          "type": "uint16"
        },
        {
          "internalType": "bytes",
          "name": "_srcAddress",
          "type": "bytes"
        },
        {
          "internalType": "uint64",
          "name": "_nonce",
          "type": "uint64"
        },
        {
          "internalType": "bytes",
          "name": "_payload",
          "type": "bytes"
        }
      ],
      "name": "nonblockingLzReceive",
      "outputs": [],
      "stateMutability": "nonpayable",
      "type": "function"
    },
    {
      "inputs": [],
      "name": "owner",
      "outputs": [
        {
          "internalType": "address",
          "name": "",
          "type": "address"
        }
      ],
      "stateMutability": "view",
      "type": "function"
    },
    {
      "inputs": [
        {
          "internalType": "uint16",
          "name": "",
          "type": "uint16"
        }
      ],
      "name": "payloadSizeLimitLookup",
      "outputs": [
        {
          "internalType": "uint256",
          "name": "",
          "type": "uint256"
        }
      ],
      "stateMutability": "view",
      "type": "function"
    },
    {
      "inputs": [],
      "name": "precrime",
      "outputs": [
        {
          "internalType": "address",
          "name": "",
          "type": "address"
        }
      ],
      "stateMutability": "view",
      "type": "function"
    },
    {
      "inputs": [
        {
          "internalType": "uint16",
          "name": "_dstChainId",
          "type": "uint16"
        },
        {
          "internalType": "uint256",
          "name": "_amount",
          "type": "uint256"
        }
      ],
      "name": "quoteOFTFee",
      "outputs": [
        {
          "internalType": "uint256",
          "name": "fee",
          "type": "uint256"
        }
      ],
      "stateMutability": "view",
      "type": "function"
    },
    {
      "inputs": [],
      "name": "renounceOwnership",
      "outputs": [],
      "stateMutability": "nonpayable",
      "type": "function"
    },
    {
      "inputs": [
        {
          "internalType": "uint16",
          "name": "_srcChainId",
          "type": "uint16"
        },
        {
          "internalType": "bytes",
          "name": "_srcAddress",
          "type": "bytes"
        },
        {
          "internalType": "uint64",
          "name": "_nonce",
          "type": "uint64"
        },
        {
          "internalType": "bytes",
          "name": "_payload",
          "type": "bytes"
        }
      ],
      "name": "retryMessage",
      "outputs": [],
      "stateMutability": "payable",
      "type": "function"
    },
    {
      "inputs": [
        {
          "internalType": "address",
          "name": "_poolAddress",
          "type": "address"
        },
        {
          "internalType": "address",
          "name": "_receiver",
          "type": "address"
        },
        {
          "internalType": "uint256",
          "name": "_amount",
          "type": "uint256"
        }
      ],
      "name": "returnFromPool",
      "outputs": [],
      "stateMutability": "nonpayable",
      "type": "function"
    },
    {
      "inputs": [
        {
          "internalType": "address",
          "name": "_from",
          "type": "address"
        },
        {
          "internalType": "uint16",
          "name": "_dstChainId",
          "type": "uint16"
        },
        {
          "internalType": "bytes32",
          "name": "_toAddress",
          "type": "bytes32"
        },
        {
          "internalType": "uint256",
          "name": "_amount",
          "type": "uint256"
        },
        {
          "internalType": "uint256",
          "name": "_minAmount",
          "type": "uint256"
        },
        {
          "internalType": "bytes",
          "name": "_payload",
          "type": "bytes"
        },
        {
          "internalType": "uint64",
          "name": "_dstGasForCall",
          "type": "uint64"
        },
        {
          "components": [
            {
              "internalType": "address payable",
              "name": "refundAddress",
              "type": "address"
            },
            {
              "internalType": "address",
              "name": "zroPaymentAddress",
              "type": "address"
            },
            {
              "internalType": "bytes",
              "name": "adapterParams",
              "type": "bytes"
            }
          ],
          "internalType": "struct ICommonOFT.LzCallParams",
          "name": "_callParams",
          "type": "tuple"
        }
      ],
      "name": "sendAndCall",
      "outputs": [],
      "stateMutability": "payable",
      "type": "function"
    },
    {
      "inputs": [
        {
          "internalType": "address",
          "name": "_from",
          "type": "address"
        },
        {
          "internalType": "uint16",
          "name": "_dstChainId",
          "type": "uint16"
        },
        {
          "internalType": "bytes32",
          "name": "_toAddress",
          "type": "bytes32"
        },
        {
          "internalType": "uint256",
          "name": "_amount",
          "type": "uint256"
        },
        {
          "internalType": "uint256",
          "name": "_minAmount",
          "type": "uint256"
        },
        {
          "components": [
            {
              "internalType": "address payable",
              "name": "refundAddress",
              "type": "address"
            },
            {
              "internalType": "address",
              "name": "zroPaymentAddress",
              "type": "address"
            },
            {
              "internalType": "bytes",
              "name": "adapterParams",
              "type": "bytes"
            }
          ],
          "internalType": "struct ICommonOFT.LzCallParams",
          "name": "_callParams",
          "type": "tuple"
        }
      ],
      "name": "sendFrom",
      "outputs": [],
      "stateMutability": "payable",
      "type": "function"
    },
    {
      "inputs": [
        {
          "internalType": "address",
          "name": "_sender",
          "type": "address"
        },
        {
          "internalType": "address",
          "name": "_poolAddress",
          "type": "address"
        },
        {
          "internalType": "uint256",
          "name": "_amount",
          "type": "uint256"
        }
      ],
      "name": "sendToPool",
      "outputs": [],
      "stateMutability": "nonpayable",
      "type": "function"
    },
    {
      "inputs": [
        {
          "internalType": "address",
          "name": "_borrowerOperationsAddress",
          "type": "address"
        },
        {
          "internalType": "address",
          "name": "_stabilityPoolAddress",
          "type": "address"
        },
        {
          "internalType": "address",
          "name": "_vesselManagerAddress",
          "type": "address"
        }
      ],
      "name": "setAddresses",
      "outputs": [],
      "stateMutability": "nonpayable",
      "type": "function"
    },
    {
      "inputs": [
        {
          "internalType": "uint16",
          "name": "_version",
          "type": "uint16"
        },
        {
          "internalType": "uint16",
          "name": "_chainId",
          "type": "uint16"
        },
        {
          "internalType": "uint256",
          "name": "_configType",
          "type": "uint256"
        },
        {
          "internalType": "bytes",
          "name": "_config",
          "type": "bytes"
        }
      ],
      "name": "setConfig",
      "outputs": [],
      "stateMutability": "nonpayable",
      "type": "function"
    },
    {
      "inputs": [
        {
          "internalType": "uint16",
          "name": "_feeBp",
          "type": "uint16"
        }
      ],
      "name": "setDefaultFeeBp",
      "outputs": [],
      "stateMutability": "nonpayable",
      "type": "function"
    },
    {
      "inputs": [
        {
          "internalType": "uint16",
          "name": "_dstChainId",
          "type": "uint16"
        },
        {
          "internalType": "bool",
          "name": "_enabled",
          "type": "bool"
        },
        {
          "internalType": "uint16",
          "name": "_feeBp",
          "type": "uint16"
        }
      ],
      "name": "setFeeBp",
      "outputs": [],
      "stateMutability": "nonpayable",
      "type": "function"
    },
    {
      "inputs": [
        {
          "internalType": "address",
          "name": "_feeOwner",
          "type": "address"
        }
      ],
      "name": "setFeeOwner",
      "outputs": [],
      "stateMutability": "nonpayable",
      "type": "function"
    },
    {
      "inputs": [
        {
          "internalType": "uint16",
          "name": "_dstChainId",
          "type": "uint16"
        },
        {
          "internalType": "uint16",
          "name": "_packetType",
          "type": "uint16"
        },
        {
          "internalType": "uint256",
          "name": "_minGas",
          "type": "uint256"
        }
      ],
      "name": "setMinDstGas",
      "outputs": [],
      "stateMutability": "nonpayable",
      "type": "function"
    },
    {
      "inputs": [
        {
          "internalType": "uint16",
          "name": "_dstChainId",
          "type": "uint16"
        },
        {
          "internalType": "uint256",
          "name": "_size",
          "type": "uint256"
        }
      ],
      "name": "setPayloadSizeLimit",
      "outputs": [],
      "stateMutability": "nonpayable",
      "type": "function"
    },
    {
      "inputs": [
        {
          "internalType": "address",
          "name": "_precrime",
          "type": "address"
        }
      ],
      "name": "setPrecrime",
      "outputs": [],
      "stateMutability": "nonpayable",
      "type": "function"
    },
    {
      "inputs": [
        {
          "internalType": "uint16",
          "name": "_version",
          "type": "uint16"
        }
      ],
      "name": "setReceiveVersion",
      "outputs": [],
      "stateMutability": "nonpayable",
      "type": "function"
    },
    {
      "inputs": [
        {
          "internalType": "uint16",
          "name": "_version",
          "type": "uint16"
        }
      ],
      "name": "setSendVersion",
      "outputs": [],
      "stateMutability": "nonpayable",
      "type": "function"
    },
    {
      "inputs": [
        {
          "internalType": "uint16",
          "name": "_remoteChainId",
          "type": "uint16"
        },
        {
          "internalType": "bytes",
          "name": "_path",
          "type": "bytes"
        }
      ],
      "name": "setTrustedRemote",
      "outputs": [],
      "stateMutability": "nonpayable",
      "type": "function"
    },
    {
      "inputs": [
        {
          "internalType": "uint16",
          "name": "_remoteChainId",
          "type": "uint16"
        },
        {
          "internalType": "bytes",
          "name": "_remoteAddress",
          "type": "bytes"
        }
      ],
      "name": "setTrustedRemoteAddress",
      "outputs": [],
      "stateMutability": "nonpayable",
      "type": "function"
    },
    {
      "inputs": [
        {
          "internalType": "bool",
          "name": "_useCustomAdapterParams",
          "type": "bool"
        }
      ],
      "name": "setUseCustomAdapterParams",
      "outputs": [],
      "stateMutability": "nonpayable",
      "type": "function"
    },
    {
      "inputs": [],
      "name": "sharedDecimals",
      "outputs": [
        {
          "internalType": "uint8",
          "name": "",
          "type": "uint8"
        }
      ],
      "stateMutability": "view",
      "type": "function"
    },
    {
      "inputs": [],
      "name": "stabilityPoolAddress",
      "outputs": [
        {
          "internalType": "address",
          "name": "",
          "type": "address"
        }
      ],
      "stateMutability": "view",
      "type": "function"
    },
    {
      "inputs": [
        {
          "internalType": "bytes4",
          "name": "interfaceId",
          "type": "bytes4"
        }
      ],
      "name": "supportsInterface",
      "outputs": [
        {
          "internalType": "bool",
          "name": "",
          "type": "bool"
        }
      ],
      "stateMutability": "view",
      "type": "function"
    },
    {
      "inputs": [],
      "name": "symbol",
      "outputs": [
        {
          "internalType": "string",
          "name": "",
          "type": "string"
        }
      ],
      "stateMutability": "view",
      "type": "function"
    },
    {
      "inputs": [],
      "name": "token",
      "outputs": [
        {
          "internalType": "address",
          "name": "",
          "type": "address"
        }
      ],
      "stateMutability": "view",
      "type": "function"
    },
    {
      "inputs": [],
      "name": "totalSupply",
      "outputs": [
        {
          "internalType": "uint256",
          "name": "",
          "type": "uint256"
        }
      ],
      "stateMutability": "view",
      "type": "function"
    },
    {
      "inputs": [
        {
          "internalType": "address",
          "name": "to",
          "type": "address"
        },
        {
          "internalType": "uint256",
          "name": "amount",
          "type": "uint256"
        }
      ],
      "name": "transfer",
      "outputs": [
        {
          "internalType": "bool",
          "name": "",
          "type": "bool"
        }
      ],
      "stateMutability": "nonpayable",
      "type": "function"
    },
    {
      "inputs": [
        {
          "internalType": "address",
          "name": "from",
          "type": "address"
        },
        {
          "internalType": "address",
          "name": "to",
          "type": "address"
        },
        {
          "internalType": "uint256",
          "name": "amount",
          "type": "uint256"
        }
      ],
      "name": "transferFrom",
      "outputs": [
        {
          "internalType": "bool",
          "name": "",
          "type": "bool"
        }
      ],
      "stateMutability": "nonpayable",
      "type": "function"
    },
    {
      "inputs": [
        {
          "internalType": "address",
          "name": "newOwner",
          "type": "address"
        }
      ],
      "name": "transferOwnership",
      "outputs": [],
      "stateMutability": "nonpayable",
      "type": "function"
    },
    {
      "inputs": [
        {
          "internalType": "uint16",
          "name": "",
          "type": "uint16"
        }
      ],
      "name": "trustedRemoteLookup",
      "outputs": [
        {
          "internalType": "bytes",
          "name": "",
          "type": "bytes"
        }
      ],
      "stateMutability": "view",
      "type": "function"
    },
    {
      "inputs": [],
      "name": "useCustomAdapterParams",
      "outputs": [
        {
          "internalType": "bool",
          "name": "",
          "type": "bool"
        }
      ],
      "stateMutability": "view",
      "type": "function"
    },
    {
      "inputs": [],
      "name": "vesselManagerAddress",
      "outputs": [
        {
          "internalType": "address",
          "name": "",
          "type": "address"
        }
      ],
      "stateMutability": "view",
      "type": "function"
    }
  ],
  "transactionHash": "0x71bd8de4fe914874cf6c31b78a6edef005ce6f1d64be4d17cf6cb80833452c50",
  "args": [
    "0x6aB5Ae6822647046626e83ee6dB8187151E1d5ab",
    6
  ],
  "numDeployments": 1,
  "solcInputHash": "9fad6471e70f183d98ff997e25ece6c5",
  "bytecode": "0x60e06040523480156200001157600080fd5b50604051620053f2380380620053f28339810160408190526200003491620002c8565b6040518060400160405280601281526020017123b930bb34ba30902232b13a102a37b5b2b760711b815250604051806040016040528060048152602001634752414960e01b81525082848383838381818080620000a06200009a620001c960201b60201c565b620001cd565b6001600160a01b0316608052505060ff1660a052620000c76000546001600160a01b031690565b600980546001600160a01b0392909216620100000262010000600160b01b0319909216919091179055505081516200010790600d90602085019062000222565b5080516200011d90600e90602084019062000222565b5050506000620001326200021d60201b60201c565b90508060ff168360ff1611156200019f5760405162461bcd60e51b815260206004820152602760248201527f4f46543a20736861726564446563696d616c73206d757374206265203c3d20646044820152666563696d616c7360c81b606482015260840160405180910390fd5b620001ab83826200032d565b620001b890600a62000452565b60c05250620004a795505050505050565b3390565b600080546001600160a01b038381166001600160a01b0319831681178455604051919092169283917f8be0079c531659141344cd1fd0a4f28419497f9722a3daafe3b4186f6b6457e09190a35050565b601290565b82805462000230906200046a565b90600052602060002090601f0160209004810192826200025457600085556200029f565b82601f106200026f57805160ff19168380011785556200029f565b828001600101855582156200029f579182015b828111156200029f57825182559160200191906001019062000282565b50620002ad929150620002b1565b5090565b5b80821115620002ad5760008155600101620002b2565b60008060408385031215620002dc57600080fd5b82516001600160a01b0381168114620002f457600080fd5b602084015190925060ff811681146200030c57600080fd5b809150509250929050565b634e487b7160e01b600052601160045260246000fd5b600060ff821660ff8416808210156200034a576200034a62000317565b90039392505050565b600181815b808511156200039457816000190482111562000378576200037862000317565b808516156200038657918102915b93841c939080029062000358565b509250929050565b600082620003ad575060016200044c565b81620003bc575060006200044c565b8160018114620003d55760028114620003e05762000400565b60019150506200044c565b60ff841115620003f457620003f462000317565b50506001821b6200044c565b5060208310610133831016604e8410600b841016171562000425575081810a6200044c565b62000431838362000353565b806000190482111562000448576200044862000317565b0290505b92915050565b60006200046360ff8416836200039c565b9392505050565b600181811c908216806200047f57607f821691505b60208210811415620004a157634e487b7160e01b600052602260045260246000fd5b50919050565b60805160a05160c051614ece6200052460003960008181613437015281816134a90152613be10152600061086e015260008181610a9a01528181610d5e01528181611076015281816111360152818161146001528181611d020152818161235e01528181612a4701528181612ff401526136510152614ece6000f3fe6080604052600436106103f95760003560e01c80638da5cb5b11610213578063bb997bac11610123578063e6a20ae6116100ab578063ecd8f2121161007a578063ecd8f21214610cce578063ed629c5c14610cee578063f2fde38b14610d08578063f5ecbdbc14610d28578063fc0c546a14610d4857600080fd5b8063e6a20ae614610c59578063eab45d9c14610c6e578063eaffd49a14610c8e578063eb8d72b714610cae57600080fd5b8063cbed8b9c116100f2578063cbed8b9c14610bb8578063d1deba1f14610bd8578063d888296814610beb578063dd62ed3e14610c19578063df2a5b3b14610c3957600080fd5b8063bb997bac14610b22578063c446183414610a72578063c6c3bbe614610b42578063c83330ce14610b6257600080fd5b8063a457c2d7116101a6578063abe685cd11610175578063abe685cd14610a72578063b353aaa714610a88578063b7f8cf9b14610abc578063b9818be114610adc578063baf3292d14610b0257600080fd5b8063a457c2d7146109f2578063a4c51df514610a12578063a6c3d16514610a32578063a9059cbb14610a5257600080fd5b80639bdb9812116101e25780639bdb9812146109305780639dc29fac146109825780639f38369a146109a2578063a1285d17146109c257600080fd5b80638da5cb5b146108c85780639358928b146108e6578063950c8a74146108fb57806395d89b411461091b57600080fd5b80633d8b38f61161030e5780635b32a439116102a1578063715018a611610270578063715018a6146108075780637533d7881461081c57806379c0ad4b1461083c578063857749b01461085c5780638cfd8f5c1461089057600080fd5b80635b32a439146107425780635b8c41e61461076257806366ad5c8a146107b157806370a08231146107d157600080fd5b8063455ba27d116102dd578063455ba27d146106da5780634b104eff146106ed5780634c42899a1461070d5780635a359dc51461072257600080fd5b80633d8b38f6146106585780633f1f4fa41461067857806342d65a8d146106a557806344770515146106c557600080fd5b806318160ddd11610391578063313ce56711610360578063313ce567146105a157806335995907146105c3578063363bf964146105e3578063365260b414610603578063395093511461063857600080fd5b806318160ddd1461052f57806320c582be1461054e57806323b872dd1461056e5780632cdf0b951461058e57600080fd5b8063095ea7b3116103cd578063095ea7b3146104975780630b622ab2146104b75780630df37483146104ef57806310ddb1371461050f57600080fd5b80621d3567146103fe57806301ffc9a71461042057806306fdde031461045557806307e0db1714610477575b600080fd5b34801561040a57600080fd5b5061041e610419366004613fd1565b610d5b565b005b34801561042c57600080fd5b5061044061043b366004614064565b610f8c565b60405190151581526020015b60405180910390f35b34801561046157600080fd5b5061046a610fc3565b60405161044c91906140e6565b34801561048357600080fd5b5061041e6104923660046140f9565b611055565b3480156104a357600080fd5b506104406104b2366004614129565b6110de565b3480156104c357600080fd5b506011546104d7906001600160a01b031681565b6040516001600160a01b03909116815260200161044c565b3480156104fb57600080fd5b5061041e61050a366004614155565b6110f6565b34801561051b57600080fd5b5061041e61052a3660046140f9565b611115565b34801561053b57600080fd5b50600c545b60405190815260200161044c565b34801561055a57600080fd5b5061041e610569366004614171565b61116d565b34801561057a57600080fd5b50610440610589366004614171565b611185565b61041e61059c3660046141ca565b6111a9565b3480156105ad57600080fd5b5060125b60405160ff909116815260200161044c565b3480156105cf57600080fd5b5061041e6105de366004614255565b61124c565b3480156105ef57600080fd5b5061041e6105fe36600461428a565b6112b7565b34801561060f57600080fd5b5061062361061e3660046142d5565b6112fe565b6040805192835260208301919091520161044c565b34801561064457600080fd5b50610440610653366004614129565b611353565b34801561066457600080fd5b5061044061067336600461433a565b611375565b34801561068457600080fd5b506105406106933660046140f9565b60036020526000908152604090205481565b3480156106b157600080fd5b5061041e6106c036600461433a565b611441565b3480156106d157600080fd5b50610540600081565b61041e6106e836600461438c565b6114c7565b3480156106f957600080fd5b5061041e610708366004614448565b6115a8565b34801561071957600080fd5b506105b1600081565b34801561072e57600080fd5b5061041e61073d3660046140f9565b611665565b34801561074e57600080fd5b506012546104d7906001600160a01b031681565b34801561076e57600080fd5b5061054061077d3660046144d2565b6005602090815260009384526040808520845180860184018051928152908401958401959095209452929052825290205481565b3480156107bd57600080fd5b5061041e6107cc366004613fd1565b6116d7565b3480156107dd57600080fd5b506105406107ec366004614448565b6001600160a01b03166000908152600a602052604090205490565b34801561081357600080fd5b5061041e6117ab565b34801561082857600080fd5b5061046a6108373660046140f9565b6117bf565b34801561084857600080fd5b5061041e610857366004614572565b611859565b34801561086857600080fd5b506105b17f000000000000000000000000000000000000000000000000000000000000000081565b34801561089c57600080fd5b506105406108ab3660046145ac565b600260209081526000928352604080842090915290825290205481565b3480156108d457600080fd5b506000546001600160a01b03166104d7565b3480156108f257600080fd5b50610540611915565b34801561090757600080fd5b506004546104d7906001600160a01b031681565b34801561092757600080fd5b5061046a611925565b34801561093c57600080fd5b5061044061094b3660046144d2565b6007602090815260009384526040808520845180860184018051928152908401958401959095209452929052825290205460ff1681565b34801561098e57600080fd5b5061041e61099d366004614129565b611934565b3480156109ae57600080fd5b5061046a6109bd3660046140f9565b61194a565b3480156109ce57600080fd5b506104406109dd366004614448565b600f6020526000908152604090205460ff1681565b3480156109fe57600080fd5b50610440610a0d366004614129565b611a61565b348015610a1e57600080fd5b50610623610a2d3660046145d6565b611adc565b348015610a3e57600080fd5b5061041e610a4d36600461433a565b611b6b565b348015610a5e57600080fd5b50610440610a6d366004614129565b611bf1565b348015610a7e57600080fd5b5061054061271081565b348015610a9457600080fd5b506104d77f000000000000000000000000000000000000000000000000000000000000000081565b348015610ac857600080fd5b506010546104d7906001600160a01b031681565b348015610ae857600080fd5b506009546104d7906201000090046001600160a01b031681565b348015610b0e57600080fd5b5061041e610b1d366004614448565b611bff565b348015610b2e57600080fd5b5061041e610b3d366004614171565b611c55565b348015610b4e57600080fd5b5061041e610b5d366004614171565b611c5d565b348015610b6e57600080fd5b50610b9e610b7d3660046140f9565b60086020526000908152604090205461ffff81169062010000900460ff1682565b6040805161ffff909316835290151560208301520161044c565b348015610bc457600080fd5b5061041e610bd336600461468f565b611ce3565b61041e610be6366004613fd1565b611d6d565b348015610bf757600080fd5b50600954610c069061ffff1681565b60405161ffff909116815260200161044c565b348015610c2557600080fd5b50610540610c343660046146fd565b611f83565b348015610c4557600080fd5b5061041e610c54366004614736565b611fae565b348015610c6557600080fd5b506105b1600181565b348015610c7a57600080fd5b5061041e610c89366004614772565b612060565b348015610c9a57600080fd5b5061041e610ca936600461478d565b6120a9565b348015610cba57600080fd5b5061041e610cc936600461433a565b6121c8565b348015610cda57600080fd5b50610540610ce9366004614155565b612222565b348015610cfa57600080fd5b506006546104409060ff1681565b348015610d1457600080fd5b5061041e610d23366004614448565b6122b4565b348015610d3457600080fd5b5061046a610d43366004614855565b61232d565b348015610d5457600080fd5b50306104d7565b337f00000000000000000000000000000000000000000000000000000000000000006001600160a01b031614610dd85760405162461bcd60e51b815260206004820152601e60248201527f4c7a4170703a20696e76616c696420656e64706f696e742063616c6c6572000060448201526064015b60405180910390fd5b61ffff861660009081526001602052604081208054610df6906148a2565b80601f0160208091040260200160405190810160405280929190818152602001828054610e22906148a2565b8015610e6f5780601f10610e4457610100808354040283529160200191610e6f565b820191906000526020600020905b815481529060010190602001808311610e5257829003601f168201915b50505050509050805186869050148015610e8a575060008151115b8015610eb2575080516020820120604051610ea890889088906148d7565b6040518091039020145b610f0d5760405162461bcd60e51b815260206004820152602660248201527f4c7a4170703a20696e76616c696420736f757263652073656e64696e6720636f6044820152651b9d1c9858dd60d21b6064820152608401610dcf565b610f838787878080601f01602080910402602001604051908101604052809392919081815260200183838082843760009201919091525050604080516020601f8a018190048102820181019092528881528a9350915088908890819084018382808284376000920191909152506123de92505050565b50505050505050565b60006001600160e01b03198216630d30953d60e31b1480610fbd57506301ffc9a760e01b6001600160e01b03198316145b92915050565b6060600d8054610fd2906148a2565b80601f0160208091040260200160405190810160405280929190818152602001828054610ffe906148a2565b801561104b5780601f106110205761010080835404028352916020019161104b565b820191906000526020600020905b81548152906001019060200180831161102e57829003601f168201915b5050505050905090565b61105d612457565b6040516307e0db1760e01b815261ffff821660048201527f00000000000000000000000000000000000000000000000000000000000000006001600160a01b0316906307e0db17906024015b600060405180830381600087803b1580156110c357600080fd5b505af11580156110d7573d6000803e3d6000fd5b5050505050565b6000336110ec8185856124b1565b5060019392505050565b6110fe612457565b61ffff909116600090815260036020526040902055565b61111d612457565b6040516310ddb13760e01b815261ffff821660048201527f00000000000000000000000000000000000000000000000000000000000000006001600160a01b0316906310ddb137906024016110a9565b6111756125d5565b61118083838361266a565b505050565b60003361119385828561283a565b61119e85858561266a565b506001949350505050565b6111b48686856128ae565b509250611222868686866111cb6020870187614448565b6111db6040880160208901614448565b6111e860408901896148e7565b8080601f0160208091040260200160405190810160405280939291908181526020018383808284376000920191909152506128f792505050565b9250818310156112445760405162461bcd60e51b8152600401610dcf9061492d565b505050505050565b611254612457565b6001600160a01b0382166000818152600f6020908152604091829020805460ff19168515159081179091558251938452908301527f5bbb1afddf32881824ddeb3fb7fe693cbb0aa35de2ef25c53ad5e8e8d44c2720910160405180910390a15050565b6112bf612457565b601080546001600160a01b039485166001600160a01b031991821617909155601180549385169382169390931790925560128054919093169116179055565b6000806113448888888888888080601f016020809104026020016040519081016040528093929190818152602001838380828437600092019190915250612a1b92505050565b91509150965096945050505050565b6000336110ec8185856113668383611f83565b6113709190614990565b6124b1565b61ffff831660009081526001602052604081208054829190611396906148a2565b80601f01602080910402602001604051908101604052809291908181526020018280546113c2906148a2565b801561140f5780601f106113e45761010080835404028352916020019161140f565b820191906000526020600020905b8154815290600101906020018083116113f257829003601f168201915b5050505050905083836040516114269291906148d7565b60405180910390208180519060200120149150509392505050565b611449612457565b6040516342d65a8d60e01b81526001600160a01b037f000000000000000000000000000000000000000000000000000000000000000016906342d65a8d90611499908690869086906004016149d1565b600060405180830381600087803b1580156114b357600080fd5b505af1158015610f83573d6000803e3d6000fd5b6114d28989886128ae565b508096505061157b8989898988888080601f0160208091040260200160405190810160405280939291908181526020018383808284376000920191909152508a92506115249150506020890189614448565b61153460408a0160208b01614448565b61154160408b018b6148e7565b8080601f016020809104026020016040519081016040528093929190818152602001838380828437600092019190915250612ad392505050565b95508486101561159d5760405162461bcd60e51b8152600401610dcf9061492d565b505050505050505050565b6115b0612457565b6001600160a01b0381166116065760405162461bcd60e51b815260206004820152601a60248201527f4665653a206665654f776e65722063616e6e6f742062652030780000000000006044820152606401610dcf565b6009805462010000600160b01b031916620100006001600160a01b038416908102919091179091556040519081527f047912631afa564eebd3db2efe191a0dec62da1fede6bbbc1ffc89d87845b1b5906020015b60405180910390a150565b61166d612457565b6127108161ffff1611156116935760405162461bcd60e51b8152600401610dcf906149ef565b6009805461ffff191661ffff83169081179091556040519081527fd26030ef4a8c225ee12b646eb4466acb41fb96b6cd4660b22d0ba0124e7bdc749060200161165a565b3330146117355760405162461bcd60e51b815260206004820152602660248201527f4e6f6e626c6f636b696e674c7a4170703a2063616c6c6572206d7573742062656044820152650204c7a4170760d41b6064820152608401610dcf565b6112448686868080601f01602080910402602001604051908101604052809392919081815260200183838082843760009201919091525050604080516020601f890181900481028201810190925287815289935091508790879081908401838280828437600092019190915250612bcf92505050565b6117b3612457565b6117bd6000612c56565b565b600160205260009081526040902080546117d8906148a2565b80601f0160208091040260200160405190810160405280929190818152602001828054611804906148a2565b80156118515780601f1061182657610100808354040283529160200191611851565b820191906000526020600020905b81548152906001019060200180831161183457829003601f168201915b505050505081565b611861612457565b6127108161ffff1611156118875760405162461bcd60e51b8152600401610dcf906149ef565b60408051808201825261ffff83811680835285151560208085018281528985166000818152600884528890209651875492511515620100000262ffffff1990931696169590951717909455845192835292820192909252918201527fdd9c9685af3e6dcb56d8f4b88d2595d4add6837a150034e7781c46b6dcf8aaab906060015b60405180910390a1505050565b6000611920600c5490565b905090565b6060600e8054610fd2906148a2565b61193c612ca6565b6119468282612d6c565b5050565b61ffff811660009081526001602052604081208054606092919061196d906148a2565b80601f0160208091040260200160405190810160405280929190818152602001828054611999906148a2565b80156119e65780601f106119bb576101008083540402835291602001916119e6565b820191906000526020600020905b8154815290600101906020018083116119c957829003601f168201915b50505050509050805160001415611a3f5760405162461bcd60e51b815260206004820152601d60248201527f4c7a4170703a206e6f20747275737465642070617468207265636f72640000006044820152606401610dcf565b611a5a600060148351611a529190614a34565b839190612eba565b9392505050565b60003381611a6f8286611f83565b905083811015611acf5760405162461bcd60e51b815260206004820152602560248201527f45524332303a2064656372656173656420616c6c6f77616e63652062656c6f77604482015264207a65726f60d81b6064820152608401610dcf565b61119e82868684036124b1565b600080611b598b8b8b8b8b8080601f01602080910402602001604051908101604052809392919081815260200183838082843760009201919091525050604080516020601f8d018190048102820181019092528b81528e93508d9250908c908c9081908401838280828437600092019190915250612fc792505050565b91509150995099975050505050505050565b611b73612457565b818130604051602001611b8893929190614a4b565b60408051601f1981840301815291815261ffff85166000908152600160209081529190208251611bbd93919290910190613e4e565b507f8c0400cfe2d1199b1a725c78960bcc2a344d869b80590d0f2bd005db15a572ce838383604051611908939291906149d1565b6000336110ec81858561266a565b611c07612457565b600480546001600160a01b0319166001600160a01b0383169081179091556040519081527f5db758e995a17ec1ad84bdef7e8c3293a0bd6179bcce400dff5d4c3d87db726b9060200161165a565b611175613082565b611c656130ef565b6001600160a01b0383166000908152600f602052604090205460ff1615611cd95760405162461bcd60e51b815260206004820152602260248201527f4d696e7420697320626c6f636b6564206f6e207468697320636f6c6c61746572604482015261185b60f21b6064820152608401610dcf565b611180828261315d565b611ceb612457565b6040516332fb62e760e21b81526001600160a01b037f0000000000000000000000000000000000000000000000000000000000000000169063cbed8b9c90611d3f9088908890889088908890600401614a71565b600060405180830381600087803b158015611d5957600080fd5b505af115801561159d573d6000803e3d6000fd5b61ffff86166000908152600560205260408082209051611d9090889088906148d7565b90815260408051602092819003830190206001600160401b03871660009081529252902054905080611e105760405162461bcd60e51b815260206004820152602360248201527f4e6f6e626c6f636b696e674c7a4170703a206e6f2073746f726564206d65737360448201526261676560e81b6064820152608401610dcf565b808383604051611e219291906148d7565b604051809103902014611e805760405162461bcd60e51b815260206004820152602160248201527f4e6f6e626c6f636b696e674c7a4170703a20696e76616c6964207061796c6f616044820152601960fa1b6064820152608401610dcf565b61ffff87166000908152600560205260408082209051611ea390899089906148d7565b90815260408051602092819003830181206001600160401b038916600090815290845282902093909355601f88018290048202830182019052868252611f3b918991899089908190840183828082843760009201919091525050604080516020601f8a018190048102820181019092528881528a935091508890889081908401838280828437600092019190915250612bcf92505050565b7fc264d91f3adc5588250e1551f547752ca0cfa8f6b530d243b9f9f4cab10ea8e58787878785604051611f72959493929190614aaa565b60405180910390a150505050505050565b6001600160a01b039182166000908152600b6020908152604080832093909416825291909152205490565b611fb6612457565b60008111611ffe5760405162461bcd60e51b81526020600482015260156024820152744c7a4170703a20696e76616c6964206d696e47617360581b6044820152606401610dcf565b61ffff83811660008181526002602090815260408083209487168084529482529182902085905581519283528201929092529081018290527f9d5c7c0b934da8fefa9c7760c98383778a12dfbfc0c3b3106518f43fb9508ac090606001611908565b612068612457565b6006805460ff19168215159081179091556040519081527f1584ad594a70cbe1e6515592e1272a987d922b097ead875069cebe8b40c004a49060200161165a565b3330146120f85760405162461bcd60e51b815260206004820152601f60248201527f4f4654436f72653a2063616c6c6572206d757374206265204f4654436f7265006044820152606401610dcf565b61210330868661323c565b9350846001600160a01b03168a61ffff167fbf551ec93859b170f9b2141bd9298bf3f64322c6f7beb2543a0cb669834118bf8660405161214591815260200190565b60405180910390a3604051633fe79aed60e11b81526001600160a01b03861690637fcf35da908390612189908e908e908e908e908e908d908d908d90600401614ae5565b600060405180830381600088803b1580156121a357600080fd5b5087f11580156121b7573d6000803e3d6000fd5b505050505050505050505050505050565b6121d0612457565b61ffff831660009081526001602052604090206121ee908383613ed2565b507ffa41487ad5d6728f0b19276fa1eddc16558578f5109fc39d2dc33c3230470dab838383604051611908939291906149d1565b61ffff828116600090815260086020908152604080832081518083019092525493841681526201000090930460ff1615801591840191909152909190612287578051612710906122769061ffff1685614b40565b6122809190614b75565b91506122ad565b60095461ffff16156122a857600954612710906122769061ffff1685614b40565b600091505b5092915050565b6122bc612457565b6001600160a01b0381166123215760405162461bcd60e51b815260206004820152602660248201527f4f776e61626c653a206e6577206f776e657220697320746865207a65726f206160448201526564647265737360d01b6064820152608401610dcf565b61232a81612c56565b50565b604051633d7b2f6f60e21b815261ffff808616600483015284166024820152306044820152606481018290526060907f00000000000000000000000000000000000000000000000000000000000000006001600160a01b03169063f5ecbdbc90608401600060405180830381865afa1580156123ad573d6000803e3d6000fd5b505050506040513d6000823e601f3d908101601f191682016040526123d59190810190614b89565b95945050505050565b6000806124415a60966366ad5c8a60e01b898989896040516024016124069493929190614bf6565b60408051601f198184030181529190526020810180516001600160e01b03166001600160e01b0319909316929092179091523092919061328e565b9150915081611244576112448686868685613318565b6000546001600160a01b031633146117bd5760405162461bcd60e51b815260206004820181905260248201527f4f776e61626c653a2063616c6c6572206973206e6f7420746865206f776e65726044820152606401610dcf565b6001600160a01b0383166125135760405162461bcd60e51b8152602060048201526024808201527f45524332303a20617070726f76652066726f6d20746865207a65726f206164646044820152637265737360e01b6064820152608401610dcf565b6001600160a01b0382166125745760405162461bcd60e51b815260206004820152602260248201527f45524332303a20617070726f766520746f20746865207a65726f206164647265604482015261737360f01b6064820152608401610dcf565b6001600160a01b038381166000818152600b602090815260408083209487168084529482529182902085905590518481527f8c5be1e5ebec7d5bd14f71427d1e84f3dd0314c0f7b2291e5b200ac8c7c3b925910160405180910390a3505050565b6012546001600160a01b03163314806125f857506011546001600160a01b031633145b6117bd5760405162461bcd60e51b815260206004820152603c60248201527f44656274546f6b656e3a2043616c6c6572206973206e6569746865722056657360448201527f73656c4d616e61676572206e6f722053746162696c697479506f6f6c000000006064820152608401610dcf565b6001600160a01b0383166126ce5760405162461bcd60e51b815260206004820152602560248201527f45524332303a207472616e736665722066726f6d20746865207a65726f206164604482015264647265737360d81b6064820152608401610dcf565b6001600160a01b0382166127305760405162461bcd60e51b815260206004820152602360248201527f45524332303a207472616e7366657220746f20746865207a65726f206164647260448201526265737360e81b6064820152608401610dcf565b6001600160a01b0383166000908152600a6020526040902054818110156127a85760405162461bcd60e51b815260206004820152602660248201527f45524332303a207472616e7366657220616d6f756e7420657863656564732062604482015265616c616e636560d01b6064820152608401610dcf565b6001600160a01b038085166000908152600a60205260408082208585039055918516815290812080548492906127df908490614990565b92505081905550826001600160a01b0316846001600160a01b03167fddf252ad1be2c89b69c2b068fc378daa952ba7f163c4a11628f55a4df523b3ef8460405161282b91815260200190565b60405180910390a35b50505050565b60006128468484611f83565b9050600019811461283457818110156128a15760405162461bcd60e51b815260206004820152601d60248201527f45524332303a20696e73756666696369656e7420616c6c6f77616e63650000006044820152606401610dcf565b61283484848484036124b1565b6000806128bb8484612222565b90506128c78184614a34565b915080156128ef576009546128ed9086906201000090046001600160a01b03168361323c565b505b935093915050565b6000612905878284816133b5565b61290e8561342f565b50905061291d8888888461346f565b90506000811161296b5760405162461bcd60e51b815260206004820152601960248201527813d19510dbdc994e88185b5bdd5b9d081d1bdbc81cdb585b1b603a1b6044820152606401610dcf565b60006129b68761297a846134a1565b6040805160006020820152602181019390935260c09190911b6001600160c01b0319166041830152805160298184030181526049909201905290565b90506129c6888287878734613527565b86896001600160a01b03168961ffff167fd81fc9b8523134ed613870ed029d6170cbb73aa6a6bc311b9a642689fb9df59a85604051612a0791815260200190565b60405180910390a450979650505050505050565b6000806000612a2d8761297a886134a1565b60405163040a7bb160e41b81529091506001600160a01b037f000000000000000000000000000000000000000000000000000000000000000016906340a7bb1090612a84908b90309086908b908b90600401614c34565b6040805180830381865afa158015612aa0573d6000803e3d6000fd5b505050506040513d601f19601f82011682018060405250810190612ac49190614c88565b92509250509550959350505050565b6000612aeb896001846001600160401b0389166133b5565b612af48761342f565b509050612b038a8a8a8461346f565b905060008111612b515760405162461bcd60e51b815260206004820152601960248201527813d19510dbdc994e88185b5bdd5b9d081d1bdbc81cdb585b1b603a1b6044820152606401610dcf565b6000612b68338a612b61856134a1565b8a8a6136cd565b9050612b788a8287878734613527565b888b6001600160a01b03168b61ffff167fd81fc9b8523134ed613870ed029d6170cbb73aa6a6bc311b9a642689fb9df59a85604051612bb991815260200190565b60405180910390a4509998505050505050505050565b6000612bdb828261370e565b905060ff8116612bf657612bf18585858561376a565b6110d7565b60ff811660011415612c0e57612bf1858585856137fa565b60405162461bcd60e51b815260206004820152601c60248201527f4f4654436f72653a20756e6b6e6f776e207061636b65742074797065000000006044820152606401610dcf565b600080546001600160a01b038381166001600160a01b0319831681178455604051919092169283917f8be0079c531659141344cd1fd0a4f28419497f9722a3daafe3b4186f6b6457e09190a35050565b6010546001600160a01b0316331480612cc957506012546001600160a01b031633145b80612cde57506011546001600160a01b031633145b6117bd5760405162461bcd60e51b815260206004820152605360248201527f44656274546f6b656e3a2043616c6c6572206973206e65697468657220426f7260448201527f726f7765724f7065726174696f6e73206e6f722056657373656c4d616e6167656064820152721c881b9bdc8814dd18589a5b1a5d1e541bdbdb606a1b608482015260a401610dcf565b6001600160a01b038216612dcc5760405162461bcd60e51b815260206004820152602160248201527f45524332303a206275726e2066726f6d20746865207a65726f206164647265736044820152607360f81b6064820152608401610dcf565b6001600160a01b0382166000908152600a602052604090205481811015612e405760405162461bcd60e51b815260206004820152602260248201527f45524332303a206275726e20616d6f756e7420657863656564732062616c616e604482015261636560f01b6064820152608401610dcf565b6001600160a01b0383166000908152600a602052604081208383039055600c8054849290612e6f908490614a34565b90915550506040518281526000906001600160a01b038516907fddf252ad1be2c89b69c2b068fc378daa952ba7f163c4a11628f55a4df523b3ef9060200160405180910390a3505050565b606081612ec881601f614990565b1015612f075760405162461bcd60e51b815260206004820152600e60248201526d736c6963655f6f766572666c6f7760901b6044820152606401610dcf565b612f118284614990565b84511015612f555760405162461bcd60e51b8152602060048201526011602482015270736c6963655f6f75744f66426f756e647360781b6044820152606401610dcf565b606082158015612f745760405191506000825260208201604052612fbe565b6040519150601f8416801560200281840101858101878315602002848b0101015b81831015612fad578051835260209283019201612f95565b5050858452601f01601f1916604052505b50949350505050565b6000806000612fda338a612b618b6134a1565b60405163040a7bb160e41b81529091506001600160a01b037f000000000000000000000000000000000000000000000000000000000000000016906340a7bb1090613031908d90309086908b908b90600401614c34565b6040805180830381865afa15801561304d573d6000803e3d6000fd5b505050506040513d601f19601f820116820180604052508101906130719190614c88565b925092505097509795505050505050565b6011546001600160a01b031633146117bd5760405162461bcd60e51b815260206004820152602a60248201527f44656274546f6b656e3a2043616c6c6572206973206e6f742074686520537461604482015269189a5b1a5d1e541bdbdb60b21b6064820152608401610dcf565b6010546001600160a01b031633146117bd5760405162461bcd60e51b815260206004820152602b60248201527f44656274546f6b656e3a2043616c6c6572206973206e6f7420426f72726f776560448201526a724f7065726174696f6e7360a81b6064820152608401610dcf565b6001600160a01b0382166131b35760405162461bcd60e51b815260206004820152601f60248201527f45524332303a206d696e7420746f20746865207a65726f2061646472657373006044820152606401610dcf565b80600c60008282546131c59190614990565b90915550506001600160a01b0382166000908152600a6020526040812080548392906131f2908490614990565b90915550506040518181526001600160a01b038316906000907fddf252ad1be2c89b69c2b068fc378daa952ba7f163c4a11628f55a4df523b3ef9060200160405180910390a35050565b600033306001600160a01b0386161480159061326a5750806001600160a01b0316856001600160a01b031614155b1561327a5761327a85828561283a565b61328585858561266a565b50909392505050565b6000606060008060008661ffff166001600160401b038111156132b3576132b3614465565b6040519080825280601f01601f1916602001820160405280156132dd576020820181803683370190505b50905060008087516020890160008d8df191503d9250868311156132ff578692505b828152826000602083013e909890975095505050505050565b8180519060200120600560008761ffff1661ffff168152602001908152602001600020856040516133499190614cac565b9081526040805191829003602090810183206001600160401b0388166000908152915220919091557fe183f33de2837795525b4792ca4cd60535bd77c53b7e7030060bfcf5734d6b0c906133a69087908790879087908790614cc8565b60405180910390a15050505050565b60065460ff16156133d1576133cc84848484613a08565b612834565b8151156128345760405162461bcd60e51b815260206004820152602660248201527f4f4654436f72653a205f61646170746572506172616d73206d7573742062652060448201526532b6b83a3c9760d11b6064820152608401610dcf565b60008061345c7f000000000000000000000000000000000000000000000000000000000000000084614d1a565b90506134688184614a34565b9150915091565b6000336001600160a01b038616811461348d5761348d86828561283a565b6134978684612d6c565b5090949350505050565b6000806134ce7f000000000000000000000000000000000000000000000000000000000000000084614b75565b90506001600160401b03811115610fbd5760405162461bcd60e51b815260206004820152601a60248201527f4f4654436f72653a20616d6f756e745344206f766572666c6f770000000000006044820152606401610dcf565b61ffff861660009081526001602052604081208054613545906148a2565b80601f0160208091040260200160405190810160405280929190818152602001828054613571906148a2565b80156135be5780601f10613593576101008083540402835291602001916135be565b820191906000526020600020905b8154815290600101906020018083116135a157829003601f168201915b505050505090508051600014156136305760405162461bcd60e51b815260206004820152603060248201527f4c7a4170703a2064657374696e6174696f6e20636861696e206973206e6f742060448201526f61207472757374656420736f7572636560801b6064820152608401610dcf565b61363b878751613ae7565b60405162c5803160e81b81526001600160a01b037f0000000000000000000000000000000000000000000000000000000000000000169063c5803100908490613692908b9086908c908c908c908c90600401614d2e565b6000604051808303818588803b1580156136ab57600080fd5b505af11580156136bf573d6000803e3d6000fd5b505050505050505050505050565b6060600185856001600160a01b03891685876040516020016136f496959493929190614d95565b604051602081830303815290604052905095945050505050565b600061371b826001614990565b835110156137615760405162461bcd60e51b8152602060048201526013602482015272746f55696e74385f6f75744f66426f756e647360681b6044820152606401610dcf565b50016001015190565b60008061377683613b55565b90925090506001600160a01b03821661378f5761dead91505b600061379a82613bda565b90506137a7878483613c0f565b9050826001600160a01b03168761ffff167fbf551ec93859b170f9b2141bd9298bf3f64322c6f7beb2543a0cb669834118bf836040516137e991815260200190565b60405180910390a350505050505050565b600080600080600061380b86613c1b565b945094509450945094506000600760008b61ffff1661ffff168152602001908152602001600020896040516138409190614cac565b90815260408051602092819003830190206001600160401b038b166000908152925281205460ff16915061387385613bda565b9050816138e1576138858b3083613c0f565b61ffff8c166000908152600760205260409081902090519192506001916138ad908d90614cac565b90815260408051602092819003830190206001600160401b038d16600090815292529020805460ff19169115159190911790555b6001600160a01b0386163b613938576040516001600160a01b03871681527f9aedf5fdba8716db3b6705ca00150643309995d4f818a249ed6dde6677e7792d9060200160405180910390a150505050505050612834565b8a8a8a8a8a8a868a60008a613956578b6001600160401b0316613958565b5a5b905060008061398a5a609663eaffd49a60e01b8e8e8e8d8d8d8d8d604051602401612406989796959493929190614df6565b9150915081156139e3578751602089012060405161ffff8d16907fb8890edbfc1c74692f527444645f95489c3703cc2df42e4a366f5d06fa6cd884906139d5908e908e908690614e6a565b60405180910390a2506139f0565b6139f08b8b8b8b85613318565b50505050505050505050505050505050505050505050565b6000613a1383613cd2565b61ffff808716600090815260026020908152604080832093891683529290529081205491925090613a45908490614990565b905060008111613a975760405162461bcd60e51b815260206004820152601a60248201527f4c7a4170703a206d696e4761734c696d6974206e6f74207365740000000000006044820152606401610dcf565b808210156112445760405162461bcd60e51b815260206004820152601b60248201527f4c7a4170703a20676173206c696d697420697320746f6f206c6f7700000000006044820152606401610dcf565b61ffff821660009081526003602052604090205480613b0557506127105b808211156111805760405162461bcd60e51b815260206004820181905260248201527f4c7a4170703a207061796c6f61642073697a6520697320746f6f206c617267656044820152606401610dcf565b60008080613b63848261370e565b60ff16148015613b74575082516029145b613bbb5760405162461bcd60e51b815260206004820152601860248201527713d19510dbdc994e881a5b9d985b1a59081c185e5b1bd85960421b6044820152606401610dcf565b613bc683600d613d2e565b9150613bd3836021613d93565b9050915091565b6000610fbd7f00000000000000000000000000000000000000000000000000000000000000006001600160401b038416614b40565b60006122ad838361315d565b600080806060816001613c2e878361370e565b60ff1614613c795760405162461bcd60e51b815260206004820152601860248201527713d19510dbdc994e881a5b9d985b1a59081c185e5b1bd85960421b6044820152606401610dcf565b613c8486600d613d2e565b9350613c91866021613d93565b9250613c9e866029613df0565b9450613cab866049613d93565b9050613cc76051808851613cbf9190614a34565b889190612eba565b915091939590929450565b6000602282511015613d265760405162461bcd60e51b815260206004820152601c60248201527f4c7a4170703a20696e76616c69642061646170746572506172616d73000000006044820152606401610dcf565b506022015190565b6000613d3b826014614990565b83511015613d835760405162461bcd60e51b8152602060048201526015602482015274746f416464726573735f6f75744f66426f756e647360581b6044820152606401610dcf565b500160200151600160601b900490565b6000613da0826008614990565b83511015613de75760405162461bcd60e51b8152602060048201526014602482015273746f55696e7436345f6f75744f66426f756e647360601b6044820152606401610dcf565b50016008015190565b6000613dfd826020614990565b83511015613e455760405162461bcd60e51b8152602060048201526015602482015274746f427974657333325f6f75744f66426f756e647360581b6044820152606401610dcf565b50016020015190565b828054613e5a906148a2565b90600052602060002090601f016020900481019282613e7c5760008555613ec2565b82601f10613e9557805160ff1916838001178555613ec2565b82800160010185558215613ec2579182015b82811115613ec2578251825591602001919060010190613ea7565b50613ece929150613f46565b5090565b828054613ede906148a2565b90600052602060002090601f016020900481019282613f005760008555613ec2565b82601f10613f195782800160ff19823516178555613ec2565b82800160010185558215613ec2579182015b82811115613ec2578235825591602001919060010190613f2b565b5b80821115613ece5760008155600101613f47565b803561ffff81168114613f6d57600080fd5b919050565b60008083601f840112613f8457600080fd5b5081356001600160401b03811115613f9b57600080fd5b602083019150836020828501011115613fb357600080fd5b9250929050565b80356001600160401b0381168114613f6d57600080fd5b60008060008060008060808789031215613fea57600080fd5b613ff387613f5b565b955060208701356001600160401b038082111561400f57600080fd5b61401b8a838b01613f72565b909750955085915061402f60408a01613fba565b9450606089013591508082111561404557600080fd5b5061405289828a01613f72565b979a9699509497509295939492505050565b60006020828403121561407657600080fd5b81356001600160e01b031981168114611a5a57600080fd5b60005b838110156140a9578181015183820152602001614091565b838111156128345750506000910152565b600081518084526140d281602086016020860161408e565b601f01601f19169290920160200192915050565b602081526000611a5a60208301846140ba565b60006020828403121561410b57600080fd5b611a5a82613f5b565b6001600160a01b038116811461232a57600080fd5b6000806040838503121561413c57600080fd5b823561414781614114565b946020939093013593505050565b6000806040838503121561416857600080fd5b61414783613f5b565b60008060006060848603121561418657600080fd5b833561419181614114565b925060208401356141a181614114565b929592945050506040919091013590565b6000606082840312156141c457600080fd5b50919050565b60008060008060008060c087890312156141e357600080fd5b86356141ee81614114565b95506141fc60208801613f5b565b945060408701359350606087013592506080870135915060a08701356001600160401b0381111561422c57600080fd5b61423889828a016141b2565b9150509295509295509295565b80358015158114613f6d57600080fd5b6000806040838503121561426857600080fd5b823561427381614114565b915061428160208401614245565b90509250929050565b60008060006060848603121561429f57600080fd5b83356142aa81614114565b925060208401356142ba81614114565b915060408401356142ca81614114565b809150509250925092565b60008060008060008060a087890312156142ee57600080fd5b6142f787613f5b565b9550602087013594506040870135935061431360608801614245565b925060808701356001600160401b0381111561432e57600080fd5b61405289828a01613f72565b60008060006040848603121561434f57600080fd5b61435884613f5b565b925060208401356001600160401b0381111561437357600080fd5b61437f86828701613f72565b9497909650939450505050565b60008060008060008060008060006101008a8c0312156143ab57600080fd5b89356143b681614114565b98506143c460208b01613f5b565b975060408a0135965060608a0135955060808a0135945060a08a01356001600160401b03808211156143f557600080fd5b6144018d838e01613f72565b909650945084915061441560c08d01613fba565b935060e08c013591508082111561442b57600080fd5b506144388c828d016141b2565b9150509295985092959850929598565b60006020828403121561445a57600080fd5b8135611a5a81614114565b634e487b7160e01b600052604160045260246000fd5b604051601f8201601f191681016001600160401b03811182821017156144a3576144a3614465565b604052919050565b60006001600160401b038211156144c4576144c4614465565b50601f01601f191660200190565b6000806000606084860312156144e757600080fd5b6144f084613f5b565b925060208401356001600160401b0381111561450b57600080fd5b8401601f8101861361451c57600080fd5b803561452f61452a826144ab565b61447b565b81815287602083850101111561454457600080fd5b8160208401602083013760006020838301015280945050505061456960408501613fba565b90509250925092565b60008060006060848603121561458757600080fd5b61459084613f5b565b925061459e60208501614245565b915061456960408501613f5b565b600080604083850312156145bf57600080fd5b6145c883613f5b565b915061428160208401613f5b565b600080600080600080600080600060e08a8c0312156145f457600080fd5b6145fd8a613f5b565b985060208a0135975060408a0135965060608a01356001600160401b038082111561462757600080fd5b6146338d838e01613f72565b909850965086915061464760808d01613fba565b955061465560a08d01614245565b945060c08c013591508082111561466b57600080fd5b506146788c828d01613f72565b915080935050809150509295985092959850929598565b6000806000806000608086880312156146a757600080fd5b6146b086613f5b565b94506146be60208701613f5b565b93506040860135925060608601356001600160401b038111156146e057600080fd5b6146ec88828901613f72565b969995985093965092949392505050565b6000806040838503121561471057600080fd5b823561471b81614114565b9150602083013561472b81614114565b809150509250929050565b60008060006060848603121561474b57600080fd5b61475484613f5b565b925061476260208501613f5b565b9150604084013590509250925092565b60006020828403121561478457600080fd5b611a5a82614245565b6000806000806000806000806000806101008b8d0312156147ad57600080fd5b6147b68b613f5b565b995060208b01356001600160401b03808211156147d257600080fd5b6147de8e838f01613f72565b909b5099508991506147f260408e01613fba565b985060608d0135975060808d0135915061480b82614114565b90955060a08c0135945060c08c0135908082111561482857600080fd5b506148358d828e01613f72565b9150809450508092505060e08b013590509295989b9194979a5092959850565b6000806000806080858703121561486b57600080fd5b61487485613f5b565b935061488260208601613f5b565b9250604085013561489281614114565b9396929550929360600135925050565b600181811c908216806148b657607f821691505b602082108114156141c457634e487b7160e01b600052602260045260246000fd5b8183823760009101908152919050565b6000808335601e198436030181126148fe57600080fd5b8301803591506001600160401b0382111561491857600080fd5b602001915036819003821315613fb357600080fd5b6020808252602d908201527f426173654f4654576974684665653a20616d6f756e74206973206c657373207460408201526c1a185b881b5a5b905b5bdd5b9d609a1b606082015260800190565b634e487b7160e01b600052601160045260246000fd5b600082198211156149a3576149a361497a565b500190565b81835281816020850137506000828201602090810191909152601f909101601f19169091010190565b61ffff841681526040602082015260006123d56040830184866149a8565b60208082526025908201527f4665653a20666565206270206d757374206265203c3d2042505f44454e4f4d496040820152642720aa27a960d91b606082015260800190565b600082821015614a4657614a4661497a565b500390565b8284823760609190911b6bffffffffffffffffffffffff19169101908152601401919050565b600061ffff808816835280871660208401525084604083015260806060830152614a9f6080830184866149a8565b979650505050505050565b61ffff86168152608060208201526000614ac86080830186886149a8565b6001600160401b0394909416604083015250606001529392505050565b61ffff8916815260c060208201526000614b0360c08301898b6149a8565b6001600160401b038816604084015286606084015285608084015282810360a0840152614b318185876149a8565b9b9a5050505050505050505050565b6000816000190483118215151615614b5a57614b5a61497a565b500290565b634e487b7160e01b600052601260045260246000fd5b600082614b8457614b84614b5f565b500490565b600060208284031215614b9b57600080fd5b81516001600160401b03811115614bb157600080fd5b8201601f81018413614bc257600080fd5b8051614bd061452a826144ab565b818152856020838501011115614be557600080fd5b6123d582602083016020860161408e565b61ffff85168152608060208201526000614c1360808301866140ba565b6001600160401b03851660408401528281036060840152614a9f81856140ba565b61ffff861681526001600160a01b038516602082015260a060408201819052600090614c62908301866140ba565b84151560608401528281036080840152614c7c81856140ba565b98975050505050505050565b60008060408385031215614c9b57600080fd5b505080516020909101519092909150565b60008251614cbe81846020870161408e565b9190910192915050565b61ffff8616815260a060208201526000614ce560a08301876140ba565b6001600160401b03861660408401528281036060840152614d0681866140ba565b90508281036080840152614c7c81856140ba565b600082614d2957614d29614b5f565b500690565b61ffff8716815260c060208201526000614d4b60c08301886140ba565b8281036040840152614d5d81886140ba565b6001600160a01b0387811660608601528616608085015283810360a08501529050614d8881856140ba565b9998505050505050505050565b60ff60f81b8760f81b16815285600182015260006001600160401b0360c01b808760c01b166021840152856029840152808560c01b166049840152508251614de481605185016020870161408e565b91909101605101979650505050505050565b600061010061ffff8b168352806020840152614e148184018b6140ba565b6001600160401b038a166040850152606084018990526001600160a01b038816608085015260a0840187905283810360c08501529050614e5481866140ba565b9150508260e08301529998505050505050505050565b606081526000614e7d60608301866140ba565b6001600160401b03949094166020830152506040015291905056fea26469706673582212204aef2fb257e6e864af6dc5b48066801ca94d5039da73da5241191ceac19dc4a064736f6c634300080c0033",
  "devdoc": {
    "kind": "dev",
    "methods": {
      "allowance(address,address)": {
        "details": "See {IERC20-allowance}."
      },
      "approve(address,uint256)": {
        "details": "See {IERC20-approve}. NOTE: If `amount` is the maximum `uint256`, the allowance is not updated on `transferFrom`. This is semantically equivalent to an infinite approval. Requirements: - `spender` cannot be the zero address."
      },
      "balanceOf(address)": {
        "details": "See {IERC20-balanceOf}."
      },
      "circulatingSupply()": {
        "details": "returns the circulating amount of tokens on current chain"
      },
      "decimals()": {
        "details": "Returns the number of decimals used to get its user representation. For example, if `decimals` equals `2`, a balance of `505` tokens should be displayed to a user as `5.05` (`505 / 10 ** 2`). Tokens usually opt for a value of 18, imitating the relationship between Ether and Wei. This is the value {ERC20} uses, unless this function is overridden; NOTE: This information is only used for _display_ purposes: it in no way affects any of the arithmetic of the contract, including {IERC20-balanceOf} and {IERC20-transfer}."
      },
      "decreaseAllowance(address,uint256)": {
        "details": "Atomically decreases the allowance granted to `spender` by the caller. This is an alternative to {approve} that can be used as a mitigation for problems described in {IERC20-approve}. Emits an {Approval} event indicating the updated allowance. Requirements: - `spender` cannot be the zero address. - `spender` must have allowance for the caller of at least `subtractedValue`."
      },
      "estimateSendFee(uint16,bytes32,uint256,bool,bytes)": {
        "details": "estimate send token `_tokenId` to (`_dstChainId`, `_toAddress`) _dstChainId - L0 defined chain id to send tokens too _toAddress - dynamic bytes array which contains the address to whom you are sending tokens to on the dstChain _amount - amount of the tokens to transfer _useZro - indicates to use zro to pay L0 fees _adapterParam - flexible bytes array to indicate messaging adapter services in L0"
      },
      "increaseAllowance(address,uint256)": {
        "details": "Atomically increases the allowance granted to `spender` by the caller. This is an alternative to {approve} that can be used as a mitigation for problems described in {IERC20-approve}. Emits an {Approval} event indicating the updated allowance. Requirements: - `spender` cannot be the zero address."
      },
      "name()": {
        "details": "Returns the name of the token."
      },
      "owner()": {
        "details": "Returns the address of the current owner."
      },
      "renounceOwnership()": {
        "details": "Leaves the contract without owner. It will not be possible to call `onlyOwner` functions anymore. Can only be called by the current owner. NOTE: Renouncing ownership will leave the contract without an owner, thereby removing any functionality that is only available to the owner."
      },
      "sendFrom(address,uint16,bytes32,uint256,uint256,(address,address,bytes))": {
        "details": "send `_amount` amount of token to (`_dstChainId`, `_toAddress`) from `_from` `_from` the owner of token `_dstChainId` the destination chain identifier `_toAddress` can be any size depending on the `dstChainId`. `_amount` the quantity of tokens in wei `_minAmount` the minimum amount of tokens to receive on dstChain `_refundAddress` the address LayerZero refunds if too much message fee is sent `_zroPaymentAddress` set to address(0x0) if not paying in ZRO (LayerZero Token) `_adapterParams` is a flexible bytes array to indicate messaging adapter services"
      },
      "symbol()": {
        "details": "Returns the symbol of the token, usually a shorter version of the name."
      },
      "token()": {
        "details": "returns the address of the ERC20 token"
      },
      "totalSupply()": {
        "details": "See {IERC20-totalSupply}."
      },
      "transfer(address,uint256)": {
        "details": "See {IERC20-transfer}. Requirements: - `to` cannot be the zero address. - the caller must have a balance of at least `amount`."
      },
      "transferFrom(address,address,uint256)": {
        "details": "See {IERC20-transferFrom}. Emits an {Approval} event indicating the updated allowance. This is not required by the EIP. See the note at the beginning of {ERC20}. NOTE: Does not update the allowance if the current allowance is the maximum `uint256`. Requirements: - `from` and `to` cannot be the zero address. - `from` must have a balance of at least `amount`. - the caller must have allowance for ``from``'s tokens of at least `amount`."
      },
      "transferOwnership(address)": {
        "details": "Transfers ownership of the contract to a new account (`newOwner`). Can only be called by the current owner."
      }
    },
    "title": "Gravita Debt Token",
    "version": 1
  },
  "userdoc": {
    "kind": "user",
    "methods": {},
    "notice": "This contract locks tokens on source, on outgoing send(), and unlocks tokens when receiving from other chains.",
    "version": 1
  },
  "storageLayout": {
    "storage": [
      {
        "astId": 4047,
        "contract": "contracts/examples/GravitaDebtToken.sol:GravitaDebtToken",
        "label": "_owner",
        "offset": 0,
        "slot": "0",
        "type": "t_address"
      },
      {
        "astId": 14402,
        "contract": "contracts/examples/GravitaDebtToken.sol:GravitaDebtToken",
        "label": "trustedRemoteLookup",
        "offset": 0,
        "slot": "1",
        "type": "t_mapping(t_uint16,t_bytes_storage)"
      },
      {
        "astId": 14408,
        "contract": "contracts/examples/GravitaDebtToken.sol:GravitaDebtToken",
        "label": "minDstGasLookup",
        "offset": 0,
        "slot": "2",
        "type": "t_mapping(t_uint16,t_mapping(t_uint16,t_uint256))"
      },
      {
        "astId": 14412,
        "contract": "contracts/examples/GravitaDebtToken.sol:GravitaDebtToken",
        "label": "payloadSizeLimitLookup",
        "offset": 0,
        "slot": "3",
        "type": "t_mapping(t_uint16,t_uint256)"
      },
      {
        "astId": 14414,
        "contract": "contracts/examples/GravitaDebtToken.sol:GravitaDebtToken",
        "label": "precrime",
        "offset": 0,
        "slot": "4",
        "type": "t_address"
      },
      {
        "astId": 14951,
        "contract": "contracts/examples/GravitaDebtToken.sol:GravitaDebtToken",
        "label": "failedMessages",
        "offset": 0,
        "slot": "5",
        "type": "t_mapping(t_uint16,t_mapping(t_bytes_memory_ptr,t_mapping(t_uint64,t_bytes32)))"
      },
      {
        "astId": 20668,
        "contract": "contracts/examples/GravitaDebtToken.sol:GravitaDebtToken",
        "label": "useCustomAdapterParams",
        "offset": 0,
        "slot": "6",
        "type": "t_bool"
      },
      {
        "astId": 20676,
        "contract": "contracts/examples/GravitaDebtToken.sol:GravitaDebtToken",
        "label": "creditedPackets",
        "offset": 0,
        "slot": "7",
        "type": "t_mapping(t_uint16,t_mapping(t_bytes_memory_ptr,t_mapping(t_uint64,t_bool)))"
      },
      {
        "astId": 22530,
        "contract": "contracts/examples/GravitaDebtToken.sol:GravitaDebtToken",
        "label": "chainIdToFeeBps",
        "offset": 0,
        "slot": "8",
        "type": "t_mapping(t_uint16,t_struct(FeeConfig)22539_storage)"
      },
      {
        "astId": 22532,
        "contract": "contracts/examples/GravitaDebtToken.sol:GravitaDebtToken",
        "label": "defaultFeeBp",
        "offset": 0,
        "slot": "9",
        "type": "t_uint16"
      },
      {
        "astId": 22534,
        "contract": "contracts/examples/GravitaDebtToken.sol:GravitaDebtToken",
        "label": "feeOwner",
        "offset": 2,
        "slot": "9",
        "type": "t_address"
      },
      {
        "astId": 5717,
        "contract": "contracts/examples/GravitaDebtToken.sol:GravitaDebtToken",
        "label": "_balances",
        "offset": 0,
        "slot": "10",
        "type": "t_mapping(t_address,t_uint256)"
      },
      {
        "astId": 5723,
        "contract": "contracts/examples/GravitaDebtToken.sol:GravitaDebtToken",
        "label": "_allowances",
        "offset": 0,
        "slot": "11",
        "type": "t_mapping(t_address,t_mapping(t_address,t_uint256))"
      },
      {
        "astId": 5725,
        "contract": "contracts/examples/GravitaDebtToken.sol:GravitaDebtToken",
        "label": "_totalSupply",
        "offset": 0,
        "slot": "12",
        "type": "t_uint256"
      },
      {
        "astId": 5727,
        "contract": "contracts/examples/GravitaDebtToken.sol:GravitaDebtToken",
        "label": "_name",
        "offset": 0,
        "slot": "13",
        "type": "t_string_storage"
      },
      {
        "astId": 5729,
        "contract": "contracts/examples/GravitaDebtToken.sol:GravitaDebtToken",
        "label": "_symbol",
        "offset": 0,
        "slot": "14",
        "type": "t_string_storage"
      },
      {
        "astId": 21667,
        "contract": "contracts/examples/GravitaDebtToken.sol:GravitaDebtToken",
        "label": "emergencyStopMintingCollateral",
        "offset": 0,
        "slot": "15",
        "type": "t_mapping(t_address,t_bool)"
      },
      {
        "astId": 21671,
        "contract": "contracts/examples/GravitaDebtToken.sol:GravitaDebtToken",
        "label": "borrowerOperationsAddress",
        "offset": 0,
        "slot": "16",
        "type": "t_address"
      },
      {
        "astId": 21673,
        "contract": "contracts/examples/GravitaDebtToken.sol:GravitaDebtToken",
        "label": "stabilityPoolAddress",
        "offset": 0,
        "slot": "17",
        "type": "t_address"
      },
      {
        "astId": 21675,
        "contract": "contracts/examples/GravitaDebtToken.sol:GravitaDebtToken",
        "label": "vesselManagerAddress",
        "offset": 0,
        "slot": "18",
        "type": "t_address"
      }
    ],
    "types": {
      "t_address": {
        "encoding": "inplace",
        "label": "address",
        "numberOfBytes": "20"
      },
      "t_bool": {
        "encoding": "inplace",
        "label": "bool",
        "numberOfBytes": "1"
      },
      "t_bytes32": {
        "encoding": "inplace",
        "label": "bytes32",
        "numberOfBytes": "32"
      },
      "t_bytes_memory_ptr": {
        "encoding": "bytes",
        "label": "bytes",
        "numberOfBytes": "32"
      },
      "t_bytes_storage": {
        "encoding": "bytes",
        "label": "bytes",
        "numberOfBytes": "32"
      },
      "t_mapping(t_address,t_bool)": {
        "encoding": "mapping",
        "key": "t_address",
        "label": "mapping(address => bool)",
        "numberOfBytes": "32",
        "value": "t_bool"
      },
      "t_mapping(t_address,t_mapping(t_address,t_uint256))": {
        "encoding": "mapping",
        "key": "t_address",
        "label": "mapping(address => mapping(address => uint256))",
        "numberOfBytes": "32",
        "value": "t_mapping(t_address,t_uint256)"
      },
      "t_mapping(t_address,t_uint256)": {
        "encoding": "mapping",
        "key": "t_address",
        "label": "mapping(address => uint256)",
        "numberOfBytes": "32",
        "value": "t_uint256"
      },
      "t_mapping(t_bytes_memory_ptr,t_mapping(t_uint64,t_bool))": {
        "encoding": "mapping",
        "key": "t_bytes_memory_ptr",
        "label": "mapping(bytes => mapping(uint64 => bool))",
        "numberOfBytes": "32",
        "value": "t_mapping(t_uint64,t_bool)"
      },
      "t_mapping(t_bytes_memory_ptr,t_mapping(t_uint64,t_bytes32))": {
        "encoding": "mapping",
        "key": "t_bytes_memory_ptr",
        "label": "mapping(bytes => mapping(uint64 => bytes32))",
        "numberOfBytes": "32",
        "value": "t_mapping(t_uint64,t_bytes32)"
      },
      "t_mapping(t_uint16,t_bytes_storage)": {
        "encoding": "mapping",
        "key": "t_uint16",
        "label": "mapping(uint16 => bytes)",
        "numberOfBytes": "32",
        "value": "t_bytes_storage"
      },
      "t_mapping(t_uint16,t_mapping(t_bytes_memory_ptr,t_mapping(t_uint64,t_bool)))": {
        "encoding": "mapping",
        "key": "t_uint16",
        "label": "mapping(uint16 => mapping(bytes => mapping(uint64 => bool)))",
        "numberOfBytes": "32",
        "value": "t_mapping(t_bytes_memory_ptr,t_mapping(t_uint64,t_bool))"
      },
      "t_mapping(t_uint16,t_mapping(t_bytes_memory_ptr,t_mapping(t_uint64,t_bytes32)))": {
        "encoding": "mapping",
        "key": "t_uint16",
        "label": "mapping(uint16 => mapping(bytes => mapping(uint64 => bytes32)))",
        "numberOfBytes": "32",
        "value": "t_mapping(t_bytes_memory_ptr,t_mapping(t_uint64,t_bytes32))"
      },
      "t_mapping(t_uint16,t_mapping(t_uint16,t_uint256))": {
        "encoding": "mapping",
        "key": "t_uint16",
        "label": "mapping(uint16 => mapping(uint16 => uint256))",
        "numberOfBytes": "32",
        "value": "t_mapping(t_uint16,t_uint256)"
      },
      "t_mapping(t_uint16,t_struct(FeeConfig)22539_storage)": {
        "encoding": "mapping",
        "key": "t_uint16",
        "label": "mapping(uint16 => struct Fee.FeeConfig)",
        "numberOfBytes": "32",
        "value": "t_struct(FeeConfig)22539_storage"
      },
      "t_mapping(t_uint16,t_uint256)": {
        "encoding": "mapping",
        "key": "t_uint16",
        "label": "mapping(uint16 => uint256)",
        "numberOfBytes": "32",
        "value": "t_uint256"
      },
      "t_mapping(t_uint64,t_bool)": {
        "encoding": "mapping",
        "key": "t_uint64",
        "label": "mapping(uint64 => bool)",
        "numberOfBytes": "32",
        "value": "t_bool"
      },
      "t_mapping(t_uint64,t_bytes32)": {
        "encoding": "mapping",
        "key": "t_uint64",
        "label": "mapping(uint64 => bytes32)",
        "numberOfBytes": "32",
        "value": "t_bytes32"
      },
      "t_string_storage": {
        "encoding": "bytes",
        "label": "string",
        "numberOfBytes": "32"
      },
      "t_struct(FeeConfig)22539_storage": {
        "encoding": "inplace",
        "label": "struct Fee.FeeConfig",
        "members": [
          {
            "astId": 22536,
            "contract": "contracts/examples/GravitaDebtToken.sol:GravitaDebtToken",
            "label": "feeBP",
            "offset": 0,
            "slot": "0",
            "type": "t_uint16"
          },
          {
            "astId": 22538,
            "contract": "contracts/examples/GravitaDebtToken.sol:GravitaDebtToken",
            "label": "enabled",
            "offset": 2,
            "slot": "0",
            "type": "t_bool"
          }
        ],
        "numberOfBytes": "32"
      },
      "t_uint16": {
        "encoding": "inplace",
        "label": "uint16",
        "numberOfBytes": "2"
      },
      "t_uint256": {
        "encoding": "inplace",
        "label": "uint256",
        "numberOfBytes": "32"
      },
      "t_uint64": {
        "encoding": "inplace",
        "label": "uint64",
        "numberOfBytes": "8"
      }
    }
  }
}