{
  "address": "0xb4F87112C2776b0aAEB17A11eb3A8EAA5eB457EA",
  "abi": [
    {
      "inputs": [
        {
          "internalType": "address",
          "name": "_token",
          "type": "address"
        },
        {
          "internalType": "uint8",
          "name": "_sharedDecimals",
          "type": "uint8"
        },
        {
          "internalType": "address",
          "name": "_layerZeroEndpoint",
          "type": "address"
        }
      ],
      "stateMutability": "nonpayable",
      "type": "constructor"
    },
    {
      "anonymous": false,
      "inputs": [
        {
          "indexed": true,
          "internalType": "uint16",
          "name": "_srcChainId",
          "type": "uint16"
        },
        {
          "indexed": false,
          "internalType": "bytes",
          "name": "_srcAddress",
          "type": "bytes"
        },
        {
          "indexed": false,
          "internalType": "uint64",
          "name": "_nonce",
          "type": "uint64"
        },
        {
          "indexed": false,
          "internalType": "bytes32",
          "name": "_hash",
          "type": "bytes32"
        }
      ],
      "name": "CallOFTReceivedSuccess",
      "type": "event"
    },
    {
      "anonymous": false,
      "inputs": [
        {
          "indexed": false,
          "internalType": "uint16",
          "name": "_srcChainId",
          "type": "uint16"
        },
        {
          "indexed": false,
          "internalType": "bytes",
          "name": "_srcAddress",
          "type": "bytes"
        },
        {
          "indexed": false,
          "internalType": "uint64",
          "name": "_nonce",
          "type": "uint64"
        },
        {
          "indexed": false,
          "internalType": "bytes",
          "name": "_payload",
          "type": "bytes"
        },
        {
          "indexed": false,
          "internalType": "bytes",
          "name": "_reason",
          "type": "bytes"
        }
      ],
      "name": "MessageFailed",
      "type": "event"
    },
    {
      "anonymous": false,
      "inputs": [
        {
          "indexed": false,
          "internalType": "address",
          "name": "_address",
          "type": "address"
        }
      ],
      "name": "NonContractAddress",
      "type": "event"
    },
    {
      "anonymous": false,
      "inputs": [
        {
          "indexed": true,
          "internalType": "address",
          "name": "previousOwner",
          "type": "address"
        },
        {
          "indexed": true,
          "internalType": "address",
          "name": "newOwner",
          "type": "address"
        }
      ],
      "name": "OwnershipTransferred",
      "type": "event"
    },
    {
      "anonymous": false,
      "inputs": [
        {
          "indexed": true,
          "internalType": "uint16",
          "name": "_srcChainId",
          "type": "uint16"
        },
        {
          "indexed": true,
          "internalType": "address",
          "name": "_to",
          "type": "address"
        },
        {
          "indexed": false,
          "internalType": "uint256",
          "name": "_amount",
          "type": "uint256"
        }
      ],
      "name": "ReceiveFromChain",
      "type": "event"
    },
    {
      "anonymous": false,
      "inputs": [
        {
          "indexed": false,
          "internalType": "uint16",
          "name": "_srcChainId",
          "type": "uint16"
        },
        {
          "indexed": false,
          "internalType": "bytes",
          "name": "_srcAddress",
          "type": "bytes"
        },
        {
          "indexed": false,
          "internalType": "uint64",
          "name": "_nonce",
          "type": "uint64"
        },
        {
          "indexed": false,
          "internalType": "bytes32",
          "name": "_payloadHash",
          "type": "bytes32"
        }
      ],
      "name": "RetryMessageSuccess",
      "type": "event"
    },
    {
      "anonymous": false,
      "inputs": [
        {
          "indexed": true,
          "internalType": "uint16",
          "name": "_dstChainId",
          "type": "uint16"
        },
        {
          "indexed": true,
          "internalType": "address",
          "name": "_from",
          "type": "address"
        },
        {
          "indexed": true,
          "internalType": "bytes32",
          "name": "_toAddress",
          "type": "bytes32"
        },
        {
          "indexed": false,
          "internalType": "uint256",
          "name": "_amount",
          "type": "uint256"
        }
      ],
      "name": "SendToChain",
      "type": "event"
    },
    {
      "anonymous": false,
      "inputs": [
        {
          "indexed": false,
          "internalType": "uint16",
          "name": "feeBp",
          "type": "uint16"
        }
      ],
      "name": "SetDefaultFeeBp",
      "type": "event"
    },
    {
      "anonymous": false,
      "inputs": [
        {
          "indexed": false,
          "internalType": "uint16",
          "name": "dstchainId",
          "type": "uint16"
        },
        {
          "indexed": false,
          "internalType": "bool",
          "name": "enabled",
          "type": "bool"
        },
        {
          "indexed": false,
          "internalType": "uint16",
          "name": "feeBp",
          "type": "uint16"
        }
      ],
      "name": "SetFeeBp",
      "type": "event"
    },
    {
      "anonymous": false,
      "inputs": [
        {
          "indexed": false,
          "internalType": "address",
          "name": "feeOwner",
          "type": "address"
        }
      ],
      "name": "SetFeeOwner",
      "type": "event"
    },
    {
      "anonymous": false,
      "inputs": [
        {
          "indexed": false,
          "internalType": "uint16",
          "name": "_dstChainId",
          "type": "uint16"
        },
        {
          "indexed": false,
          "internalType": "uint16",
          "name": "_type",
          "type": "uint16"
        },
        {
          "indexed": false,
          "internalType": "uint256",
          "name": "_minDstGas",
          "type": "uint256"
        }
      ],
      "name": "SetMinDstGas",
      "type": "event"
    },
    {
      "anonymous": false,
      "inputs": [
        {
          "indexed": false,
          "internalType": "address",
          "name": "precrime",
          "type": "address"
        }
      ],
      "name": "SetPrecrime",
      "type": "event"
    },
    {
      "anonymous": false,
      "inputs": [
        {
          "indexed": false,
          "internalType": "uint16",
          "name": "_remoteChainId",
          "type": "uint16"
        },
        {
          "indexed": false,
          "internalType": "bytes",
          "name": "_path",
          "type": "bytes"
        }
      ],
      "name": "SetTrustedRemote",
      "type": "event"
    },
    {
      "anonymous": false,
      "inputs": [
        {
          "indexed": false,
          "internalType": "uint16",
          "name": "_remoteChainId",
          "type": "uint16"
        },
        {
          "indexed": false,
          "internalType": "bytes",
          "name": "_remoteAddress",
          "type": "bytes"
        }
      ],
      "name": "SetTrustedRemoteAddress",
      "type": "event"
    },
    {
      "anonymous": false,
      "inputs": [
        {
          "indexed": false,
          "internalType": "bool",
          "name": "_useCustomAdapterParams",
          "type": "bool"
        }
      ],
      "name": "SetUseCustomAdapterParams",
      "type": "event"
    },
    {
      "inputs": [],
      "name": "BP_DENOMINATOR",
      "outputs": [
        {
          "internalType": "uint256",
          "name": "",
          "type": "uint256"
        }
      ],
      "stateMutability": "view",
      "type": "function"
    },
    {
      "inputs": [],
      "name": "DEFAULT_PAYLOAD_SIZE_LIMIT",
      "outputs": [
        {
          "internalType": "uint256",
          "name": "",
          "type": "uint256"
        }
      ],
      "stateMutability": "view",
      "type": "function"
    },
    {
      "inputs": [],
      "name": "NO_EXTRA_GAS",
      "outputs": [
        {
          "internalType": "uint256",
          "name": "",
          "type": "uint256"
        }
      ],
      "stateMutability": "view",
      "type": "function"
    },
    {
      "inputs": [],
      "name": "PT_SEND",
      "outputs": [
        {
          "internalType": "uint8",
          "name": "",
          "type": "uint8"
        }
      ],
      "stateMutability": "view",
      "type": "function"
    },
    {
      "inputs": [],
      "name": "PT_SEND_AND_CALL",
      "outputs": [
        {
          "internalType": "uint8",
          "name": "",
          "type": "uint8"
        }
      ],
      "stateMutability": "view",
      "type": "function"
    },
    {
      "inputs": [
        {
          "internalType": "uint16",
          "name": "_srcChainId",
          "type": "uint16"
        },
        {
          "internalType": "bytes",
          "name": "_srcAddress",
          "type": "bytes"
        },
        {
          "internalType": "uint64",
          "name": "_nonce",
          "type": "uint64"
        },
        {
          "internalType": "bytes32",
          "name": "_from",
          "type": "bytes32"
        },
        {
          "internalType": "address",
          "name": "_to",
          "type": "address"
        },
        {
          "internalType": "uint256",
          "name": "_amount",
          "type": "uint256"
        },
        {
          "internalType": "bytes",
          "name": "_payload",
          "type": "bytes"
        },
        {
          "internalType": "uint256",
          "name": "_gasForCall",
          "type": "uint256"
        }
      ],
      "name": "callOnOFTReceived",
      "outputs": [],
      "stateMutability": "nonpayable",
      "type": "function"
    },
    {
      "inputs": [
        {
          "internalType": "uint16",
          "name": "",
          "type": "uint16"
        }
      ],
      "name": "chainIdToFeeBps",
      "outputs": [
        {
          "internalType": "uint16",
          "name": "feeBP",
          "type": "uint16"
        },
        {
          "internalType": "bool",
          "name": "enabled",
          "type": "bool"
        }
      ],
      "stateMutability": "view",
      "type": "function"
    },
    {
      "inputs": [],
      "name": "circulatingSupply",
      "outputs": [
        {
          "internalType": "uint256",
          "name": "",
          "type": "uint256"
        }
      ],
      "stateMutability": "view",
      "type": "function"
    },
    {
      "inputs": [
        {
          "internalType": "uint16",
          "name": "",
          "type": "uint16"
        },
        {
          "internalType": "bytes",
          "name": "",
          "type": "bytes"
        },
        {
          "internalType": "uint64",
          "name": "",
          "type": "uint64"
        }
      ],
      "name": "creditedPackets",
      "outputs": [
        {
          "internalType": "bool",
          "name": "",
          "type": "bool"
        }
      ],
      "stateMutability": "view",
      "type": "function"
    },
    {
      "inputs": [],
      "name": "defaultFeeBp",
      "outputs": [
        {
          "internalType": "uint16",
          "name": "",
          "type": "uint16"
        }
      ],
      "stateMutability": "view",
      "type": "function"
    },
    {
      "inputs": [
        {
          "internalType": "uint16",
          "name": "_dstChainId",
          "type": "uint16"
        },
        {
          "internalType": "bytes32",
          "name": "_toAddress",
          "type": "bytes32"
        },
        {
          "internalType": "uint256",
          "name": "_amount",
          "type": "uint256"
        },
        {
          "internalType": "bytes",
          "name": "_payload",
          "type": "bytes"
        },
        {
          "internalType": "uint64",
          "name": "_dstGasForCall",
          "type": "uint64"
        },
        {
          "internalType": "bool",
          "name": "_useZro",
          "type": "bool"
        },
        {
          "internalType": "bytes",
          "name": "_adapterParams",
          "type": "bytes"
        }
      ],
      "name": "estimateSendAndCallFee",
      "outputs": [
        {
          "internalType": "uint256",
          "name": "nativeFee",
          "type": "uint256"
        },
        {
          "internalType": "uint256",
          "name": "zroFee",
          "type": "uint256"
        }
      ],
      "stateMutability": "view",
      "type": "function"
    },
    {
      "inputs": [
        {
          "internalType": "uint16",
          "name": "_dstChainId",
          "type": "uint16"
        },
        {
          "internalType": "bytes32",
          "name": "_toAddress",
          "type": "bytes32"
        },
        {
          "internalType": "uint256",
          "name": "_amount",
          "type": "uint256"
        },
        {
          "internalType": "bool",
          "name": "_useZro",
          "type": "bool"
        },
        {
          "internalType": "bytes",
          "name": "_adapterParams",
          "type": "bytes"
        }
      ],
      "name": "estimateSendFee",
      "outputs": [
        {
          "internalType": "uint256",
          "name": "nativeFee",
          "type": "uint256"
        },
        {
          "internalType": "uint256",
          "name": "zroFee",
          "type": "uint256"
        }
      ],
      "stateMutability": "view",
      "type": "function"
    },
    {
      "inputs": [
        {
          "internalType": "uint16",
          "name": "",
          "type": "uint16"
        },
        {
          "internalType": "bytes",
          "name": "",
          "type": "bytes"
        },
        {
          "internalType": "uint64",
          "name": "",
          "type": "uint64"
        }
      ],
      "name": "failedMessages",
      "outputs": [
        {
          "internalType": "bytes32",
          "name": "",
          "type": "bytes32"
        }
      ],
      "stateMutability": "view",
      "type": "function"
    },
    {
      "inputs": [],
      "name": "feeOwner",
      "outputs": [
        {
          "internalType": "address",
          "name": "",
          "type": "address"
        }
      ],
      "stateMutability": "view",
      "type": "function"
    },
    {
      "inputs": [
        {
          "internalType": "uint16",
          "name": "_srcChainId",
          "type": "uint16"
        },
        {
          "internalType": "bytes",
          "name": "_srcAddress",
          "type": "bytes"
        }
      ],
      "name": "forceResumeReceive",
      "outputs": [],
      "stateMutability": "nonpayable",
      "type": "function"
    },
    {
      "inputs": [
        {
          "internalType": "uint16",
          "name": "_version",
          "type": "uint16"
        },
        {
          "internalType": "uint16",
          "name": "_chainId",
          "type": "uint16"
        },
        {
          "internalType": "address",
          "name": "",
          "type": "address"
        },
        {
          "internalType": "uint256",
          "name": "_configType",
          "type": "uint256"
        }
      ],
      "name": "getConfig",
      "outputs": [
        {
          "internalType": "bytes",
          "name": "",
          "type": "bytes"
        }
      ],
      "stateMutability": "view",
      "type": "function"
    },
    {
      "inputs": [
        {
          "internalType": "uint16",
          "name": "_remoteChainId",
          "type": "uint16"
        }
      ],
      "name": "getTrustedRemoteAddress",
      "outputs": [
        {
          "internalType": "bytes",
          "name": "",
          "type": "bytes"
        }
      ],
      "stateMutability": "view",
      "type": "function"
    },
    {
      "inputs": [
        {
          "internalType": "uint16",
          "name": "_srcChainId",
          "type": "uint16"
        },
        {
          "internalType": "bytes",
          "name": "_srcAddress",
          "type": "bytes"
        }
      ],
      "name": "isTrustedRemote",
      "outputs": [
        {
          "internalType": "bool",
          "name": "",
          "type": "bool"
        }
      ],
      "stateMutability": "view",
      "type": "function"
    },
    {
      "inputs": [],
      "name": "lzEndpoint",
      "outputs": [
        {
          "internalType": "contract ILayerZeroEndpoint",
          "name": "",
          "type": "address"
        }
      ],
      "stateMutability": "view",
      "type": "function"
    },
    {
      "inputs": [
        {
          "internalType": "uint16",
          "name": "_srcChainId",
          "type": "uint16"
        },
        {
          "internalType": "bytes",
          "name": "_srcAddress",
          "type": "bytes"
        },
        {
          "internalType": "uint64",
          "name": "_nonce",
          "type": "uint64"
        },
        {
          "internalType": "bytes",
          "name": "_payload",
          "type": "bytes"
        }
      ],
      "name": "lzReceive",
      "outputs": [],
      "stateMutability": "nonpayable",
      "type": "function"
    },
    {
      "inputs": [
        {
          "internalType": "uint16",
          "name": "",
          "type": "uint16"
        },
        {
          "internalType": "uint16",
          "name": "",
          "type": "uint16"
        }
      ],
      "name": "minDstGasLookup",
      "outputs": [
        {
          "internalType": "uint256",
          "name": "",
          "type": "uint256"
        }
      ],
      "stateMutability": "view",
      "type": "function"
    },
    {
      "inputs": [
        {
          "internalType": "uint16",
          "name": "_srcChainId",
          "type": "uint16"
        },
        {
          "internalType": "bytes",
          "name": "_srcAddress",
          "type": "bytes"
        },
        {
          "internalType": "uint64",
          "name": "_nonce",
          "type": "uint64"
        },
        {
          "internalType": "bytes",
          "name": "_payload",
          "type": "bytes"
        }
      ],
      "name": "nonblockingLzReceive",
      "outputs": [],
      "stateMutability": "nonpayable",
      "type": "function"
    },
    {
      "inputs": [],
      "name": "owner",
      "outputs": [
        {
          "internalType": "address",
          "name": "",
          "type": "address"
        }
      ],
      "stateMutability": "view",
      "type": "function"
    },
    {
      "inputs": [
        {
          "internalType": "uint16",
          "name": "",
          "type": "uint16"
        }
      ],
      "name": "payloadSizeLimitLookup",
      "outputs": [
        {
          "internalType": "uint256",
          "name": "",
          "type": "uint256"
        }
      ],
      "stateMutability": "view",
      "type": "function"
    },
    {
      "inputs": [],
      "name": "precrime",
      "outputs": [
        {
          "internalType": "address",
          "name": "",
          "type": "address"
        }
      ],
      "stateMutability": "view",
      "type": "function"
    },
    {
      "inputs": [
        {
          "internalType": "uint16",
          "name": "_dstChainId",
          "type": "uint16"
        },
        {
          "internalType": "uint256",
          "name": "_amount",
          "type": "uint256"
        }
      ],
      "name": "quoteOFTFee",
      "outputs": [
        {
          "internalType": "uint256",
          "name": "fee",
          "type": "uint256"
        }
      ],
      "stateMutability": "view",
      "type": "function"
    },
    {
      "inputs": [],
      "name": "renounceOwnership",
      "outputs": [],
      "stateMutability": "nonpayable",
      "type": "function"
    },
    {
      "inputs": [
        {
          "internalType": "uint16",
          "name": "_srcChainId",
          "type": "uint16"
        },
        {
          "internalType": "bytes",
          "name": "_srcAddress",
          "type": "bytes"
        },
        {
          "internalType": "uint64",
          "name": "_nonce",
          "type": "uint64"
        },
        {
          "internalType": "bytes",
          "name": "_payload",
          "type": "bytes"
        }
      ],
      "name": "retryMessage",
      "outputs": [],
      "stateMutability": "payable",
      "type": "function"
    },
    {
      "inputs": [
        {
          "internalType": "address",
          "name": "_from",
          "type": "address"
        },
        {
          "internalType": "uint16",
          "name": "_dstChainId",
          "type": "uint16"
        },
        {
          "internalType": "bytes32",
          "name": "_toAddress",
          "type": "bytes32"
        },
        {
          "internalType": "uint256",
          "name": "_amount",
          "type": "uint256"
        },
        {
          "internalType": "uint256",
          "name": "_minAmount",
          "type": "uint256"
        },
        {
          "internalType": "bytes",
          "name": "_payload",
          "type": "bytes"
        },
        {
          "internalType": "uint64",
          "name": "_dstGasForCall",
          "type": "uint64"
        },
        {
          "components": [
            {
              "internalType": "address payable",
              "name": "refundAddress",
              "type": "address"
            },
            {
              "internalType": "address",
              "name": "zroPaymentAddress",
              "type": "address"
            },
            {
              "internalType": "bytes",
              "name": "adapterParams",
              "type": "bytes"
            }
          ],
          "internalType": "struct ICommonOFT.LzCallParams",
          "name": "_callParams",
          "type": "tuple"
        }
      ],
      "name": "sendAndCall",
      "outputs": [],
      "stateMutability": "payable",
      "type": "function"
    },
    {
      "inputs": [
        {
          "internalType": "address",
          "name": "_from",
          "type": "address"
        },
        {
          "internalType": "uint16",
          "name": "_dstChainId",
          "type": "uint16"
        },
        {
          "internalType": "bytes32",
          "name": "_toAddress",
          "type": "bytes32"
        },
        {
          "internalType": "uint256",
          "name": "_amount",
          "type": "uint256"
        },
        {
          "internalType": "uint256",
          "name": "_minAmount",
          "type": "uint256"
        },
        {
          "components": [
            {
              "internalType": "address payable",
              "name": "refundAddress",
              "type": "address"
            },
            {
              "internalType": "address",
              "name": "zroPaymentAddress",
              "type": "address"
            },
            {
              "internalType": "bytes",
              "name": "adapterParams",
              "type": "bytes"
            }
          ],
          "internalType": "struct ICommonOFT.LzCallParams",
          "name": "_callParams",
          "type": "tuple"
        }
      ],
      "name": "sendFrom",
      "outputs": [],
      "stateMutability": "payable",
      "type": "function"
    },
    {
      "inputs": [
        {
          "internalType": "uint16",
          "name": "_version",
          "type": "uint16"
        },
        {
          "internalType": "uint16",
          "name": "_chainId",
          "type": "uint16"
        },
        {
          "internalType": "uint256",
          "name": "_configType",
          "type": "uint256"
        },
        {
          "internalType": "bytes",
          "name": "_config",
          "type": "bytes"
        }
      ],
      "name": "setConfig",
      "outputs": [],
      "stateMutability": "nonpayable",
      "type": "function"
    },
    {
      "inputs": [
        {
          "internalType": "uint16",
          "name": "_feeBp",
          "type": "uint16"
        }
      ],
      "name": "setDefaultFeeBp",
      "outputs": [],
      "stateMutability": "nonpayable",
      "type": "function"
    },
    {
      "inputs": [
        {
          "internalType": "uint16",
          "name": "_dstChainId",
          "type": "uint16"
        },
        {
          "internalType": "bool",
          "name": "_enabled",
          "type": "bool"
        },
        {
          "internalType": "uint16",
          "name": "_feeBp",
          "type": "uint16"
        }
      ],
      "name": "setFeeBp",
      "outputs": [],
      "stateMutability": "nonpayable",
      "type": "function"
    },
    {
      "inputs": [
        {
          "internalType": "address",
          "name": "_feeOwner",
          "type": "address"
        }
      ],
      "name": "setFeeOwner",
      "outputs": [],
      "stateMutability": "nonpayable",
      "type": "function"
    },
    {
      "inputs": [
        {
          "internalType": "uint16",
          "name": "_dstChainId",
          "type": "uint16"
        },
        {
          "internalType": "uint16",
          "name": "_packetType",
          "type": "uint16"
        },
        {
          "internalType": "uint256",
          "name": "_minGas",
          "type": "uint256"
        }
      ],
      "name": "setMinDstGas",
      "outputs": [],
      "stateMutability": "nonpayable",
      "type": "function"
    },
    {
      "inputs": [
        {
          "internalType": "uint16",
          "name": "_dstChainId",
          "type": "uint16"
        },
        {
          "internalType": "uint256",
          "name": "_size",
          "type": "uint256"
        }
      ],
      "name": "setPayloadSizeLimit",
      "outputs": [],
      "stateMutability": "nonpayable",
      "type": "function"
    },
    {
      "inputs": [
        {
          "internalType": "address",
          "name": "_precrime",
          "type": "address"
        }
      ],
      "name": "setPrecrime",
      "outputs": [],
      "stateMutability": "nonpayable",
      "type": "function"
    },
    {
      "inputs": [
        {
          "internalType": "uint16",
          "name": "_version",
          "type": "uint16"
        }
      ],
      "name": "setReceiveVersion",
      "outputs": [],
      "stateMutability": "nonpayable",
      "type": "function"
    },
    {
      "inputs": [
        {
          "internalType": "uint16",
          "name": "_version",
          "type": "uint16"
        }
      ],
      "name": "setSendVersion",
      "outputs": [],
      "stateMutability": "nonpayable",
      "type": "function"
    },
    {
      "inputs": [
        {
          "internalType": "uint16",
          "name": "_remoteChainId",
          "type": "uint16"
        },
        {
          "internalType": "bytes",
          "name": "_path",
          "type": "bytes"
        }
      ],
      "name": "setTrustedRemote",
      "outputs": [],
      "stateMutability": "nonpayable",
      "type": "function"
    },
    {
      "inputs": [
        {
          "internalType": "uint16",
          "name": "_remoteChainId",
          "type": "uint16"
        },
        {
          "internalType": "bytes",
          "name": "_remoteAddress",
          "type": "bytes"
        }
      ],
      "name": "setTrustedRemoteAddress",
      "outputs": [],
      "stateMutability": "nonpayable",
      "type": "function"
    },
    {
      "inputs": [
        {
          "internalType": "bool",
          "name": "_useCustomAdapterParams",
          "type": "bool"
        }
      ],
      "name": "setUseCustomAdapterParams",
      "outputs": [],
      "stateMutability": "nonpayable",
      "type": "function"
    },
    {
      "inputs": [],
      "name": "sharedDecimals",
      "outputs": [
        {
          "internalType": "uint8",
          "name": "",
          "type": "uint8"
        }
      ],
      "stateMutability": "view",
      "type": "function"
    },
    {
      "inputs": [
        {
          "internalType": "bytes4",
          "name": "interfaceId",
          "type": "bytes4"
        }
      ],
      "name": "supportsInterface",
      "outputs": [
        {
          "internalType": "bool",
          "name": "",
          "type": "bool"
        }
      ],
      "stateMutability": "view",
      "type": "function"
    },
    {
      "inputs": [],
      "name": "token",
      "outputs": [
        {
          "internalType": "address",
          "name": "",
          "type": "address"
        }
      ],
      "stateMutability": "view",
      "type": "function"
    },
    {
      "inputs": [
        {
          "internalType": "address",
          "name": "newOwner",
          "type": "address"
        }
      ],
      "name": "transferOwnership",
      "outputs": [],
      "stateMutability": "nonpayable",
      "type": "function"
    },
    {
      "inputs": [
        {
          "internalType": "uint16",
          "name": "",
          "type": "uint16"
        }
      ],
      "name": "trustedRemoteLookup",
      "outputs": [
        {
          "internalType": "bytes",
          "name": "",
          "type": "bytes"
        }
      ],
      "stateMutability": "view",
      "type": "function"
    },
    {
      "inputs": [],
      "name": "useCustomAdapterParams",
      "outputs": [
        {
          "internalType": "bool",
          "name": "",
          "type": "bool"
        }
      ],
      "stateMutability": "view",
      "type": "function"
    }
  ],
  "transactionHash": "0xc8886295cbe542e96ff30be7e49b894051fd0c3730961725192c18f73911f22f",
  "args": [
    "0x78076562e30Fd49c70C4E91f65644d15C32C1839",
    6,
    "0xbfD2135BFfbb0B5378b56643c2Df8a87552Bfa23"
  ],
  "numDeployments": 1,
  "solcInputHash": "d9b9e3f4da791b9240599d6da9b31120",
  "bytecode": "0x6101006040523480156200001257600080fd5b5060405162004884380380620048848339810160408190526200003591620002b4565b828282818181818080620000493362000235565b6001600160a01b0316608052505060ff1660a052620000706000546001600160a01b031690565b600980546001600160a01b03928316620100000262010000600160b01b0319909116179055851660c081905260408051600481526024810182526020810180516001600160e01b031663313ce56760e01b179052905160009450849350620000d99190620002fe565b600060405180830381855afa9150503d806000811462000116576040519150601f19603f3d011682016040523d82523d6000602084013e6200011b565b606091505b509150915081620001825760405162461bcd60e51b815260206004820152602660248201527f50726f78794f46543a206661696c656420746f2067657420746f6b656e20646560448201526563696d616c7360d01b60648201526084015b60405180910390fd5b6000818060200190518101906200019a91906200033c565b90508060ff168560ff161115620002095760405162461bcd60e51b815260206004820152602c60248201527f50726f78794f46543a20736861726564446563696d616c73206d75737420626560448201526b203c3d20646563696d616c7360a01b606482015260840162000179565b62000215858262000377565b6200022290600a6200049c565b60e05250620004ad975050505050505050565b600080546001600160a01b038381166001600160a01b0319831681178455604051919092169283917f8be0079c531659141344cd1fd0a4f28419497f9722a3daafe3b4186f6b6457e09190a35050565b80516001600160a01b03811681146200029d57600080fd5b919050565b805160ff811681146200029d57600080fd5b600080600060608486031215620002ca57600080fd5b620002d58462000285565b9250620002e560208501620002a2565b9150620002f56040850162000285565b90509250925092565b6000825160005b8181101562000321576020818601810151858301520162000305565b8181111562000331576000828501525b509190910192915050565b6000602082840312156200034f57600080fd5b6200035a82620002a2565b9392505050565b634e487b7160e01b600052601160045260246000fd5b600060ff821660ff84168082101562000394576200039462000361565b90039392505050565b600181815b80851115620003de578160001904821115620003c257620003c262000361565b80851615620003d057918102915b93841c9390800290620003a2565b509250929050565b600082620003f75750600162000496565b81620004065750600062000496565b81600181146200041f57600281146200042a576200044a565b600191505062000496565b60ff8411156200043e576200043e62000361565b50506001821b62000496565b5060208310610133831016604e8410600b84101617156200046f575081810a62000496565b6200047b83836200039d565b806000190482111562000492576200049262000361565b0290505b92915050565b60006200035a60ff841683620003e6565b60805160a05160c05160e05161431f620005656000396000818161280c01528181612942015261307f01526000818161095b0152818161138301528181612411015281816124b501528181612556015281816125e6015281816128cd01526130c60152600061058301526000818161071e0152818161098201528181610c0801528181610cb001528181610eca015281816116a901528181611cda01528181611fc60152818161235f0152612aea015261431f6000f3fe6080604052600436106102925760003560e01c8063950c8a741161015a578063d1deba1f116100c1578063eb8d72b71161007a578063eb8d72b7146108b2578063ecd8f212146108d2578063ed629c5c146108f2578063f2fde38b1461090c578063f5ecbdbc1461092c578063fc0c546a1461094c57600080fd5b8063d1deba1f146107fc578063d88829681461080f578063df2a5b3b1461083d578063e6a20ae61461085d578063eab45d9c14610872578063eaffd49a1461089257600080fd5b8063b353aaa711610113578063b353aaa71461070c578063b9818be114610740578063baf3292d14610766578063c4461834146106f6578063c83330ce14610786578063cbed8b9c146107dc57600080fd5b8063950c8a74146106245780639bdb9812146106445780639f38369a14610696578063a4c51df5146106b6578063a6c3d165146106d6578063abe685cd146106f657600080fd5b80634b104eff116101fe5780637533d788116101b75780637533d7881461052457806379c0ad4b14610551578063857749b0146105715780638cfd8f5c146105a55780638da5cb5b146105dd5780639358928b1461060f57600080fd5b80634b104eff146104395780634c42899a146104595780635a359dc5146104805780635b8c41e6146104a057806366ad5c8a146104ef578063715018a61461050f57600080fd5b8063365260b411610250578063365260b4146103615780633d8b38f6146103965780633f1f4fa4146103b657806342d65a8d146103f15780634477051514610411578063455ba27d1461042657600080fd5b80621d35671461029757806301ffc9a7146102b957806307e0db17146102ee5780630df374831461030e57806310ddb1371461032e5780632cdf0b951461034e575b600080fd5b3480156102a357600080fd5b506102b76102b23660046134f3565b61097f565b005b3480156102c557600080fd5b506102d96102d4366004613586565b610bb0565b60405190151581526020015b60405180910390f35b3480156102fa57600080fd5b506102b76103093660046135b0565b610be7565b34801561031a57600080fd5b506102b76103293660046135cb565b610c70565b34801561033a57600080fd5b506102b76103493660046135b0565b610c8f565b6102b761035c366004613622565b610ce7565b34801561036d57600080fd5b5061038161037c3660046136ab565b610d8a565b604080519283526020830191909152016102e5565b3480156103a257600080fd5b506102d96103b1366004613712565b610ddf565b3480156103c257600080fd5b506103e36103d13660046135b0565b60036020526000908152604090205481565b6040519081526020016102e5565b3480156103fd57600080fd5b506102b761040c366004613712565b610eab565b34801561041d57600080fd5b506103e3600081565b6102b7610434366004613764565b610f31565b34801561044557600080fd5b506102b7610454366004613820565b611012565b34801561046557600080fd5b5061046e600081565b60405160ff90911681526020016102e5565b34801561048c57600080fd5b506102b761049b3660046135b0565b6110cf565b3480156104ac57600080fd5b506103e36104bb3660046138aa565b6005602090815260009384526040808520845180860184018051928152908401958401959095209452929052825290205481565b3480156104fb57600080fd5b506102b761050a3660046134f3565b611141565b34801561051b57600080fd5b506102b7611215565b34801561053057600080fd5b5061054461053f3660046135b0565b611229565b6040516102e591906139a2565b34801561055d57600080fd5b506102b761056c3660046139b5565b6112c3565b34801561057d57600080fd5b5061046e7f000000000000000000000000000000000000000000000000000000000000000081565b3480156105b157600080fd5b506103e36105c03660046139f1565b600260209081526000928352604080842090915290825290205481565b3480156105e957600080fd5b506000546001600160a01b03165b6040516001600160a01b0390911681526020016102e5565b34801561061b57600080fd5b506103e361137f565b34801561063057600080fd5b506004546105f7906001600160a01b031681565b34801561065057600080fd5b506102d961065f3660046138aa565b6007602090815260009384526040808520845180860184018051928152908401958401959095209452929052825290205460ff1681565b3480156106a257600080fd5b506105446106b13660046135b0565b611408565b3480156106c257600080fd5b506103816106d1366004613a24565b61151f565b3480156106e257600080fd5b506102b76106f1366004613712565b6115ae565b34801561070257600080fd5b506103e361271081565b34801561071857600080fd5b506105f77f000000000000000000000000000000000000000000000000000000000000000081565b34801561074c57600080fd5b506009546105f7906201000090046001600160a01b031681565b34801561077257600080fd5b506102b7610781366004613820565b611634565b34801561079257600080fd5b506107c26107a13660046135b0565b60086020526000908152604090205461ffff81169062010000900460ff1682565b6040805161ffff90931683529015156020830152016102e5565b3480156107e857600080fd5b506102b76107f7366004613ae1565b61168a565b6102b761080a3660046134f3565b611714565b34801561081b57600080fd5b5060095461082a9061ffff1681565b60405161ffff90911681526020016102e5565b34801561084957600080fd5b506102b7610858366004613b4f565b61192a565b34801561086957600080fd5b5061046e600181565b34801561087e57600080fd5b506102b761088d366004613b8b565b6119dc565b34801561089e57600080fd5b506102b76108ad366004613ba8565b611a25565b3480156108be57600080fd5b506102b76108cd366004613712565b611b44565b3480156108de57600080fd5b506103e36108ed3660046135cb565b611b9e565b3480156108fe57600080fd5b506006546102d99060ff1681565b34801561091857600080fd5b506102b7610927366004613820565b611c30565b34801561093857600080fd5b50610544610947366004613c70565b611ca9565b34801561095857600080fd5b507f00000000000000000000000000000000000000000000000000000000000000006105f7565b337f00000000000000000000000000000000000000000000000000000000000000006001600160a01b0316146109fc5760405162461bcd60e51b815260206004820152601e60248201527f4c7a4170703a20696e76616c696420656e64706f696e742063616c6c6572000060448201526064015b60405180910390fd5b61ffff861660009081526001602052604081208054610a1a90613cbd565b80601f0160208091040260200160405190810160405280929190818152602001828054610a4690613cbd565b8015610a935780601f10610a6857610100808354040283529160200191610a93565b820191906000526020600020905b815481529060010190602001808311610a7657829003601f168201915b50505050509050805186869050148015610aae575060008151115b8015610ad6575080516020820120604051610acc9088908890613cf2565b6040518091039020145b610b315760405162461bcd60e51b815260206004820152602660248201527f4c7a4170703a20696e76616c696420736f757263652073656e64696e6720636f6044820152651b9d1c9858dd60d21b60648201526084016109f3565b610ba78787878080601f01602080910402602001604051908101604052809392919081815260200183838082843760009201919091525050604080516020601f8a018190048102820181019092528881528a935091508890889081908401838280828437600092019190915250611d5a92505050565b50505050505050565b60006001600160e01b03198216630d30953d60e31b1480610be157506301ffc9a760e01b6001600160e01b03198316145b92915050565b610bef611dd3565b6040516307e0db1760e01b815261ffff821660048201527f00000000000000000000000000000000000000000000000000000000000000006001600160a01b0316906307e0db17906024015b600060405180830381600087803b158015610c5557600080fd5b505af1158015610c69573d6000803e3d6000fd5b5050505050565b610c78611dd3565b61ffff909116600090815260036020526040902055565b610c97611dd3565b6040516310ddb13760e01b815261ffff821660048201527f00000000000000000000000000000000000000000000000000000000000000006001600160a01b0316906310ddb13790602401610c3b565b610cf2868685611e2d565b509250610d6086868686610d096020870187613820565b610d196040880160208901613820565b610d266040890189613d02565b8080601f016020809104026020016040519081016040528093929190818152602001838380828437600092019190915250611e7692505050565b925081831015610d825760405162461bcd60e51b81526004016109f390613d48565b505050505050565b600080610dd08888888888888080601f016020809104026020016040519081016040528093929190818152602001838380828437600092019190915250611f9a92505050565b91509150965096945050505050565b61ffff831660009081526001602052604081208054829190610e0090613cbd565b80601f0160208091040260200160405190810160405280929190818152602001828054610e2c90613cbd565b8015610e795780601f10610e4e57610100808354040283529160200191610e79565b820191906000526020600020905b815481529060010190602001808311610e5c57829003601f168201915b505050505090508383604051610e90929190613cf2565b60405180910390208180519060200120149150509392505050565b610eb3611dd3565b6040516342d65a8d60e01b81526001600160a01b037f000000000000000000000000000000000000000000000000000000000000000016906342d65a8d90610f0390869086908690600401613dbe565b600060405180830381600087803b158015610f1d57600080fd5b505af1158015610ba7573d6000803e3d6000fd5b610f3c898988611e2d565b5080965050610fe58989898988888080601f0160208091040260200160405190810160405280939291908181526020018383808284376000920191909152508a9250610f8e9150506020890189613820565b610f9e60408a0160208b01613820565b610fab60408b018b613d02565b8080601f01602080910402602001604051908101604052809392919081815260200183838082843760009201919091525061205292505050565b9550848610156110075760405162461bcd60e51b81526004016109f390613d48565b505050505050505050565b61101a611dd3565b6001600160a01b0381166110705760405162461bcd60e51b815260206004820152601a60248201527f4665653a206665654f776e65722063616e6e6f7420626520307800000000000060448201526064016109f3565b6009805462010000600160b01b031916620100006001600160a01b038416908102919091179091556040519081527f047912631afa564eebd3db2efe191a0dec62da1fede6bbbc1ffc89d87845b1b5906020015b60405180910390a150565b6110d7611dd3565b6127108161ffff1611156110fd5760405162461bcd60e51b81526004016109f390613ddc565b6009805461ffff191661ffff83169081179091556040519081527fd26030ef4a8c225ee12b646eb4466acb41fb96b6cd4660b22d0ba0124e7bdc74906020016110c4565b33301461119f5760405162461bcd60e51b815260206004820152602660248201527f4e6f6e626c6f636b696e674c7a4170703a2063616c6c6572206d7573742062656044820152650204c7a4170760d41b60648201526084016109f3565b610d828686868080601f01602080910402602001604051908101604052809392919081815260200183838082843760009201919091525050604080516020601f89018190048102820181019092528781528993509150879087908190840183828082843760009201919091525061214e92505050565b61121d611dd3565b61122760006121d5565b565b6001602052600090815260409020805461124290613cbd565b80601f016020809104026020016040519081016040528092919081815260200182805461126e90613cbd565b80156112bb5780601f10611290576101008083540402835291602001916112bb565b820191906000526020600020905b81548152906001019060200180831161129e57829003601f168201915b505050505081565b6112cb611dd3565b6127108161ffff1611156112f15760405162461bcd60e51b81526004016109f390613ddc565b60408051808201825261ffff83811680835285151560208085018281528985166000818152600884528890209651875492511515620100000262ffffff1990931696169590951717909455845192835292820192909252918201527fdd9c9685af3e6dcb56d8f4b88d2595d4add6837a150034e7781c46b6dcf8aaab906060015b60405180910390a1505050565b60007f00000000000000000000000000000000000000000000000000000000000000006001600160a01b03166318160ddd6040518163ffffffff1660e01b8152600401602060405180830381865afa1580156113df573d6000803e3d6000fd5b505050506040513d601f19601f820116820180604052508101906114039190613e21565b905090565b61ffff811660009081526001602052604081208054606092919061142b90613cbd565b80601f016020809104026020016040519081016040528092919081815260200182805461145790613cbd565b80156114a45780601f10611479576101008083540402835291602001916114a4565b820191906000526020600020905b81548152906001019060200180831161148757829003601f168201915b505050505090508051600014156114fd5760405162461bcd60e51b815260206004820152601d60248201527f4c7a4170703a206e6f20747275737465642070617468207265636f726400000060448201526064016109f3565b6115186000601483516115109190613e50565b839190612225565b9392505050565b60008061159c8b8b8b8b8b8080601f01602080910402602001604051908101604052809392919081815260200183838082843760009201919091525050604080516020601f8d018190048102820181019092528b81528e93508d9250908c908c908190840183828082843760009201919091525061233292505050565b91509150995099975050505050505050565b6115b6611dd3565b8181306040516020016115cb93929190613e67565b60408051601f1981840301815291815261ffff8516600090815260016020908152919020825161160093919290910190613370565b507f8c0400cfe2d1199b1a725c78960bcc2a344d869b80590d0f2bd005db15a572ce83838360405161137293929190613dbe565b61163c611dd3565b600480546001600160a01b0319166001600160a01b0383169081179091556040519081527f5db758e995a17ec1ad84bdef7e8c3293a0bd6179bcce400dff5d4c3d87db726b906020016110c4565b611692611dd3565b6040516332fb62e760e21b81526001600160a01b037f0000000000000000000000000000000000000000000000000000000000000000169063cbed8b9c906116e69088908890889088908890600401613e8d565b600060405180830381600087803b15801561170057600080fd5b505af1158015611007573d6000803e3d6000fd5b61ffff861660009081526005602052604080822090516117379088908890613cf2565b90815260408051602092819003830190206001600160401b038716600090815292529020549050806117b75760405162461bcd60e51b815260206004820152602360248201527f4e6f6e626c6f636b696e674c7a4170703a206e6f2073746f726564206d65737360448201526261676560e81b60648201526084016109f3565b8083836040516117c8929190613cf2565b6040518091039020146118275760405162461bcd60e51b815260206004820152602160248201527f4e6f6e626c6f636b696e674c7a4170703a20696e76616c6964207061796c6f616044820152601960fa1b60648201526084016109f3565b61ffff8716600090815260056020526040808220905161184a9089908990613cf2565b90815260408051602092819003830181206001600160401b038916600090815290845282902093909355601f880182900482028301820190528682526118e2918991899089908190840183828082843760009201919091525050604080516020601f8a018190048102820181019092528881528a93509150889088908190840183828082843760009201919091525061214e92505050565b7fc264d91f3adc5588250e1551f547752ca0cfa8f6b530d243b9f9f4cab10ea8e58787878785604051611919959493929190613ec6565b60405180910390a150505050505050565b611932611dd3565b6000811161197a5760405162461bcd60e51b81526020600482015260156024820152744c7a4170703a20696e76616c6964206d696e47617360581b60448201526064016109f3565b61ffff83811660008181526002602090815260408083209487168084529482529182902085905581519283528201929092529081018290527f9d5c7c0b934da8fefa9c7760c98383778a12dfbfc0c3b3106518f43fb9508ac090606001611372565b6119e4611dd3565b6006805460ff19168215159081179091556040519081527f1584ad594a70cbe1e6515592e1272a987d922b097ead875069cebe8b40c004a4906020016110c4565b333014611a745760405162461bcd60e51b815260206004820152601f60248201527f4f4654436f72653a2063616c6c6572206d757374206265204f4654436f72650060448201526064016109f3565b611a7f3086866123ed565b9350846001600160a01b03168a61ffff167fbf551ec93859b170f9b2141bd9298bf3f64322c6f7beb2543a0cb669834118bf86604051611ac191815260200190565b60405180910390a3604051633fe79aed60e11b81526001600160a01b03861690637fcf35da908390611b05908e908e908e908e908e908d908d908d90600401613f01565b600060405180830381600088803b158015611b1f57600080fd5b5087f1158015611b33573d6000803e3d6000fd5b505050505050505050505050505050565b611b4c611dd3565b61ffff83166000908152600160205260409020611b6a9083836133f4565b507ffa41487ad5d6728f0b19276fa1eddc16558578f5109fc39d2dc33c3230470dab83838360405161137293929190613dbe565b61ffff828116600090815260086020908152604080832081518083019092525493841681526201000090930460ff1615801591840191909152909190611c0357805161271090611bf29061ffff1685613f5c565b611bfc9190613f91565b9150611c29565b60095461ffff1615611c245760095461271090611bf29061ffff1685613f5c565b600091505b5092915050565b611c38611dd3565b6001600160a01b038116611c9d5760405162461bcd60e51b815260206004820152602660248201527f4f776e61626c653a206e6577206f776e657220697320746865207a65726f206160448201526564647265737360d01b60648201526084016109f3565b611ca6816121d5565b50565b604051633d7b2f6f60e21b815261ffff808616600483015284166024820152306044820152606481018290526060907f00000000000000000000000000000000000000000000000000000000000000006001600160a01b03169063f5ecbdbc90608401600060405180830381865afa158015611d29573d6000803e3d6000fd5b505050506040513d6000823e601f3d908101601f19168201604052611d519190810190613fa5565b95945050505050565b600080611dbd5a60966366ad5c8a60e01b89898989604051602401611d829493929190614012565b60408051601f198184030181529190526020810180516001600160e01b03166001600160e01b0319909316929092179091523092919061265d565b9150915081610d8257610d8286868686856126e7565b6000546001600160a01b031633146112275760405162461bcd60e51b815260206004820181905260248201527f4f776e61626c653a2063616c6c6572206973206e6f7420746865206f776e657260448201526064016109f3565b600080611e3a8484611b9e565b9050611e468184613e50565b91508015611e6e57600954611e6c9086906201000090046001600160a01b0316836123ed565b505b935093915050565b6000611e8487828481612784565b611e8d85612804565b509050611e9c88888884612844565b905060008111611eea5760405162461bcd60e51b815260206004820152601960248201527813d19510dbdc994e88185b5bdd5b9d081d1bdbc81cdb585b1b603a1b60448201526064016109f3565b6000611f3587611ef98461293a565b6040805160006020820152602181019390935260c09190911b6001600160c01b0319166041830152805160298184030181526049909201905290565b9050611f458882878787346129c0565b86896001600160a01b03168961ffff167fd81fc9b8523134ed613870ed029d6170cbb73aa6a6bc311b9a642689fb9df59a85604051611f8691815260200190565b60405180910390a450979650505050505050565b6000806000611fac87611ef98861293a565b60405163040a7bb160e41b81529091506001600160a01b037f000000000000000000000000000000000000000000000000000000000000000016906340a7bb1090612003908b90309086908b908b90600401614050565b6040805180830381865afa15801561201f573d6000803e3d6000fd5b505050506040513d601f19601f8201168201806040525081019061204391906140a4565b92509250509550959350505050565b600061206a896001846001600160401b038916612784565b61207387612804565b5090506120828a8a8a84612844565b9050600081116120d05760405162461bcd60e51b815260206004820152601960248201527813d19510dbdc994e88185b5bdd5b9d081d1bdbc81cdb585b1b603a1b60448201526064016109f3565b60006120e7338a6120e08561293a565b8a8a612b66565b90506120f78a82878787346129c0565b888b6001600160a01b03168b61ffff167fd81fc9b8523134ed613870ed029d6170cbb73aa6a6bc311b9a642689fb9df59a8560405161213891815260200190565b60405180910390a4509998505050505050505050565b600061215a8282612ba7565b905060ff81166121755761217085858585612c03565b610c69565b60ff81166001141561218d5761217085858585612c93565b60405162461bcd60e51b815260206004820152601c60248201527f4f4654436f72653a20756e6b6e6f776e207061636b657420747970650000000060448201526064016109f3565b600080546001600160a01b038381166001600160a01b0319831681178455604051919092169283917f8be0079c531659141344cd1fd0a4f28419497f9722a3daafe3b4186f6b6457e09190a35050565b60608161223381601f6140c8565b10156122725760405162461bcd60e51b815260206004820152600e60248201526d736c6963655f6f766572666c6f7760901b60448201526064016109f3565b61227c82846140c8565b845110156122c05760405162461bcd60e51b8152602060048201526011602482015270736c6963655f6f75744f66426f756e647360781b60448201526064016109f3565b6060821580156122df5760405191506000825260208201604052612329565b6040519150601f8416801560200281840101858101878315602002848b0101015b81831015612318578051835260209283019201612300565b5050858452601f01601f1916604052505b50949350505050565b6000806000612345338a6120e08b61293a565b60405163040a7bb160e41b81529091506001600160a01b037f000000000000000000000000000000000000000000000000000000000000000016906340a7bb109061239c908d90309086908b908b90600401614050565b6040805180830381865afa1580156123b8573d6000803e3d6000fd5b505050506040513d601f19601f820116820180604052508101906123dc91906140a4565b925092505097509795505050505050565b6040516370a0823160e01b81526001600160a01b03838116600483015260009182917f000000000000000000000000000000000000000000000000000000000000000016906370a0823190602401602060405180830381865afa158015612458573d6000803e3d6000fd5b505050506040513d601f19601f8201168201806040525081019061247c9190613e21565b90506001600160a01b0385163014156125285760405163a9059cbb60e01b81526001600160a01b038581166004830152602482018590527f0000000000000000000000000000000000000000000000000000000000000000169063a9059cbb906044016020604051808303816000875af11580156124fe573d6000803e3d6000fd5b505050506040513d601f19601f8201168201806040525081019061252291906140e0565b506125c5565b6040516323b872dd60e01b81526001600160a01b0386811660048301528581166024830152604482018590527f000000000000000000000000000000000000000000000000000000000000000016906323b872dd906064016020604051808303816000875af115801561259f573d6000803e3d6000fd5b505050506040513d601f19601f820116820180604052508101906125c391906140e0565b505b6040516370a0823160e01b81526001600160a01b03858116600483015282917f0000000000000000000000000000000000000000000000000000000000000000909116906370a0823190602401602060405180830381865afa15801561262f573d6000803e3d6000fd5b505050506040513d601f19601f820116820180604052508101906126539190613e21565b611d519190613e50565b6000606060008060008661ffff166001600160401b038111156126825761268261383d565b6040519080825280601f01601f1916602001820160405280156126ac576020820181803683370190505b50905060008087516020890160008d8df191503d9250868311156126ce578692505b828152826000602083013e909890975095505050505050565b8180519060200120600560008761ffff1661ffff1681526020019081526020016000208560405161271891906140fd565b9081526040805191829003602090810183206001600160401b0388166000908152915220919091557fe183f33de2837795525b4792ca4cd60535bd77c53b7e7030060bfcf5734d6b0c906127759087908790879087908790614119565b60405180910390a15050505050565b60065460ff16156127a05761279b84848484612ea1565b6127fe565b8151156127fe5760405162461bcd60e51b815260206004820152602660248201527f4f4654436f72653a205f61646170746572506172616d73206d7573742062652060448201526532b6b83a3c9760d11b60648201526084016109f3565b50505050565b6000806128317f00000000000000000000000000000000000000000000000000000000000000008461416b565b905061283d8184613e50565b9150915091565b60006001600160a01b03851633146128a95760405162461bcd60e51b815260206004820152602260248201527f50726f78794f46543a206f776e6572206973206e6f742073656e642063616c6c60448201526132b960f11b60648201526084016109f3565b6128b48530846123ed565b604051635cad563b60e11b8152600481018290529092507f00000000000000000000000000000000000000000000000000000000000000006001600160a01b03169063b95aac7690602401600060405180830381600087803b15801561291957600080fd5b505af115801561292d573d6000803e3d6000fd5b5093979650505050505050565b6000806129677f000000000000000000000000000000000000000000000000000000000000000084613f91565b90506001600160401b03811115610be15760405162461bcd60e51b815260206004820152601a60248201527f4f4654436f72653a20616d6f756e745344206f766572666c6f7700000000000060448201526064016109f3565b61ffff8616600090815260016020526040812080546129de90613cbd565b80601f0160208091040260200160405190810160405280929190818152602001828054612a0a90613cbd565b8015612a575780601f10612a2c57610100808354040283529160200191612a57565b820191906000526020600020905b815481529060010190602001808311612a3a57829003601f168201915b50505050509050805160001415612ac95760405162461bcd60e51b815260206004820152603060248201527f4c7a4170703a2064657374696e6174696f6e20636861696e206973206e6f742060448201526f61207472757374656420736f7572636560801b60648201526084016109f3565b612ad4878751612f80565b60405162c5803160e81b81526001600160a01b037f0000000000000000000000000000000000000000000000000000000000000000169063c5803100908490612b2b908b9086908c908c908c908c9060040161417f565b6000604051808303818588803b158015612b4457600080fd5b505af1158015612b58573d6000803e3d6000fd5b505050505050505050505050565b6060600185856001600160a01b0389168587604051602001612b8d969594939291906141e6565b604051602081830303815290604052905095945050505050565b6000612bb48260016140c8565b83511015612bfa5760405162461bcd60e51b8152602060048201526013602482015272746f55696e74385f6f75744f66426f756e647360681b60448201526064016109f3565b50016001015190565b600080612c0f83612ff3565b90925090506001600160a01b038216612c285761dead91505b6000612c3382613078565b9050612c408784836130ad565b9050826001600160a01b03168761ffff167fbf551ec93859b170f9b2141bd9298bf3f64322c6f7beb2543a0cb669834118bf83604051612c8291815260200190565b60405180910390a350505050505050565b6000806000806000612ca48661313d565b945094509450945094506000600760008b61ffff1661ffff16815260200190815260200160002089604051612cd991906140fd565b90815260408051602092819003830190206001600160401b038b166000908152925281205460ff169150612d0c85613078565b905081612d7a57612d1e8b30836130ad565b61ffff8c16600090815260076020526040908190209051919250600191612d46908d906140fd565b90815260408051602092819003830190206001600160401b038d16600090815292529020805460ff19169115159190911790555b6001600160a01b0386163b612dd1576040516001600160a01b03871681527f9aedf5fdba8716db3b6705ca00150643309995d4f818a249ed6dde6677e7792d9060200160405180910390a1505050505050506127fe565b8a8a8a8a8a8a868a60008a612def578b6001600160401b0316612df1565b5a5b9050600080612e235a609663eaffd49a60e01b8e8e8e8d8d8d8d8d604051602401611d82989796959493929190614247565b915091508115612e7c578751602089012060405161ffff8d16907fb8890edbfc1c74692f527444645f95489c3703cc2df42e4a366f5d06fa6cd88490612e6e908e908e9086906142bb565b60405180910390a250612e89565b612e898b8b8b8b856126e7565b50505050505050505050505050505050505050505050565b6000612eac836131f4565b61ffff808716600090815260026020908152604080832093891683529290529081205491925090612ede9084906140c8565b905060008111612f305760405162461bcd60e51b815260206004820152601a60248201527f4c7a4170703a206d696e4761734c696d6974206e6f742073657400000000000060448201526064016109f3565b80821015610d825760405162461bcd60e51b815260206004820152601b60248201527f4c7a4170703a20676173206c696d697420697320746f6f206c6f77000000000060448201526064016109f3565b61ffff821660009081526003602052604090205480612f9e57506127105b80821115612fee5760405162461bcd60e51b815260206004820181905260248201527f4c7a4170703a207061796c6f61642073697a6520697320746f6f206c6172676560448201526064016109f3565b505050565b600080806130018482612ba7565b60ff16148015613012575082516029145b6130595760405162461bcd60e51b815260206004820152601860248201527713d19510dbdc994e881a5b9d985b1a59081c185e5b1bd85960421b60448201526064016109f3565b61306483600d613250565b91506130718360216132b5565b9050915091565b6000610be17f00000000000000000000000000000000000000000000000000000000000000006001600160401b038416613f5c565b604051637bfa6ced60e11b8152600481018290526000907f00000000000000000000000000000000000000000000000000000000000000006001600160a01b03169063f7f4d9da90602401600060405180830381600087803b15801561311257600080fd5b505af1158015613126573d6000803e3d6000fd5b505050506131353084846123ed565b949350505050565b6000808060608160016131508783612ba7565b60ff161461319b5760405162461bcd60e51b815260206004820152601860248201527713d19510dbdc994e881a5b9d985b1a59081c185e5b1bd85960421b60448201526064016109f3565b6131a686600d613250565b93506131b38660216132b5565b92506131c0866029613312565b94506131cd8660496132b5565b90506131e960518088516131e19190613e50565b889190612225565b915091939590929450565b60006022825110156132485760405162461bcd60e51b815260206004820152601c60248201527f4c7a4170703a20696e76616c69642061646170746572506172616d730000000060448201526064016109f3565b506022015190565b600061325d8260146140c8565b835110156132a55760405162461bcd60e51b8152602060048201526015602482015274746f416464726573735f6f75744f66426f756e647360581b60448201526064016109f3565b500160200151600160601b900490565b60006132c28260086140c8565b835110156133095760405162461bcd60e51b8152602060048201526014602482015273746f55696e7436345f6f75744f66426f756e647360601b60448201526064016109f3565b50016008015190565b600061331f8260206140c8565b835110156133675760405162461bcd60e51b8152602060048201526015602482015274746f427974657333325f6f75744f66426f756e647360581b60448201526064016109f3565b50016020015190565b82805461337c90613cbd565b90600052602060002090601f01602090048101928261339e57600085556133e4565b82601f106133b757805160ff19168380011785556133e4565b828001600101855582156133e4579182015b828111156133e45782518255916020019190600101906133c9565b506133f0929150613468565b5090565b82805461340090613cbd565b90600052602060002090601f01602090048101928261342257600085556133e4565b82601f1061343b5782800160ff198235161785556133e4565b828001600101855582156133e4579182015b828111156133e457823582559160200191906001019061344d565b5b808211156133f05760008155600101613469565b803561ffff8116811461348f57600080fd5b919050565b60008083601f8401126134a657600080fd5b5081356001600160401b038111156134bd57600080fd5b6020830191508360208285010111156134d557600080fd5b9250929050565b80356001600160401b038116811461348f57600080fd5b6000806000806000806080878903121561350c57600080fd5b6135158761347d565b955060208701356001600160401b038082111561353157600080fd5b61353d8a838b01613494565b909750955085915061355160408a016134dc565b9450606089013591508082111561356757600080fd5b5061357489828a01613494565b979a9699509497509295939492505050565b60006020828403121561359857600080fd5b81356001600160e01b03198116811461151857600080fd5b6000602082840312156135c257600080fd5b6115188261347d565b600080604083850312156135de57600080fd5b6135e78361347d565b946020939093013593505050565b6001600160a01b0381168114611ca657600080fd5b60006060828403121561361c57600080fd5b50919050565b60008060008060008060c0878903121561363b57600080fd5b8635613646816135f5565b95506136546020880161347d565b945060408701359350606087013592506080870135915060a08701356001600160401b0381111561368457600080fd5b61369089828a0161360a565b9150509295509295509295565b8015158114611ca657600080fd5b60008060008060008060a087890312156136c457600080fd5b6136cd8761347d565b9550602087013594506040870135935060608701356136eb8161369d565b925060808701356001600160401b0381111561370657600080fd5b61357489828a01613494565b60008060006040848603121561372757600080fd5b6137308461347d565b925060208401356001600160401b0381111561374b57600080fd5b61375786828701613494565b9497909650939450505050565b60008060008060008060008060006101008a8c03121561378357600080fd5b893561378e816135f5565b985061379c60208b0161347d565b975060408a0135965060608a0135955060808a0135945060a08a01356001600160401b03808211156137cd57600080fd5b6137d98d838e01613494565b90965094508491506137ed60c08d016134dc565b935060e08c013591508082111561380357600080fd5b506138108c828d0161360a565b9150509295985092959850929598565b60006020828403121561383257600080fd5b8135611518816135f5565b634e487b7160e01b600052604160045260246000fd5b604051601f8201601f191681016001600160401b038111828210171561387b5761387b61383d565b604052919050565b60006001600160401b0382111561389c5761389c61383d565b50601f01601f191660200190565b6000806000606084860312156138bf57600080fd5b6138c88461347d565b925060208401356001600160401b038111156138e357600080fd5b8401601f810186136138f457600080fd5b803561390761390282613883565b613853565b81815287602083850101111561391c57600080fd5b81602084016020830137600060208383010152809450505050613941604085016134dc565b90509250925092565b60005b8381101561396557818101518382015260200161394d565b838111156127fe5750506000910152565b6000815180845261398e81602086016020860161394a565b601f01601f19169290920160200192915050565b6020815260006115186020830184613976565b6000806000606084860312156139ca57600080fd5b6139d38461347d565b925060208401356139e38161369d565b91506139416040850161347d565b60008060408385031215613a0457600080fd5b613a0d8361347d565b9150613a1b6020840161347d565b90509250929050565b600080600080600080600080600060e08a8c031215613a4257600080fd5b613a4b8a61347d565b985060208a0135975060408a0135965060608a01356001600160401b0380821115613a7557600080fd5b613a818d838e01613494565b9098509650869150613a9560808d016134dc565b955060a08c01359150613aa78261369d565b90935060c08b01359080821115613abd57600080fd5b50613aca8c828d01613494565b915080935050809150509295985092959850929598565b600080600080600060808688031215613af957600080fd5b613b028661347d565b9450613b106020870161347d565b93506040860135925060608601356001600160401b03811115613b3257600080fd5b613b3e88828901613494565b969995985093965092949392505050565b600080600060608486031215613b6457600080fd5b613b6d8461347d565b9250613b7b6020850161347d565b9150604084013590509250925092565b600060208284031215613b9d57600080fd5b81356115188161369d565b6000806000806000806000806000806101008b8d031215613bc857600080fd5b613bd18b61347d565b995060208b01356001600160401b0380821115613bed57600080fd5b613bf98e838f01613494565b909b509950899150613c0d60408e016134dc565b985060608d0135975060808d01359150613c26826135f5565b90955060a08c0135945060c08c01359080821115613c4357600080fd5b50613c508d828e01613494565b9150809450508092505060e08b013590509295989b9194979a5092959850565b60008060008060808587031215613c8657600080fd5b613c8f8561347d565b9350613c9d6020860161347d565b92506040850135613cad816135f5565b9396929550929360600135925050565b600181811c90821680613cd157607f821691505b6020821081141561361c57634e487b7160e01b600052602260045260246000fd5b8183823760009101908152919050565b6000808335601e19843603018112613d1957600080fd5b8301803591506001600160401b03821115613d3357600080fd5b6020019150368190038213156134d557600080fd5b6020808252602d908201527f426173654f4654576974684665653a20616d6f756e74206973206c657373207460408201526c1a185b881b5a5b905b5bdd5b9d609a1b606082015260800190565b81835281816020850137506000828201602090810191909152601f909101601f19169091010190565b61ffff84168152604060208201526000611d51604083018486613d95565b60208082526025908201527f4665653a20666565206270206d757374206265203c3d2042505f44454e4f4d496040820152642720aa27a960d91b606082015260800190565b600060208284031215613e3357600080fd5b5051919050565b634e487b7160e01b600052601160045260246000fd5b600082821015613e6257613e62613e3a565b500390565b8284823760609190911b6bffffffffffffffffffffffff19169101908152601401919050565b600061ffff808816835280871660208401525084604083015260806060830152613ebb608083018486613d95565b979650505050505050565b61ffff86168152608060208201526000613ee4608083018688613d95565b6001600160401b0394909416604083015250606001529392505050565b61ffff8916815260c060208201526000613f1f60c08301898b613d95565b6001600160401b038816604084015286606084015285608084015282810360a0840152613f4d818587613d95565b9b9a5050505050505050505050565b6000816000190483118215151615613f7657613f76613e3a565b500290565b634e487b7160e01b600052601260045260246000fd5b600082613fa057613fa0613f7b565b500490565b600060208284031215613fb757600080fd5b81516001600160401b03811115613fcd57600080fd5b8201601f81018413613fde57600080fd5b8051613fec61390282613883565b81815285602083850101111561400157600080fd5b611d5182602083016020860161394a565b61ffff8516815260806020820152600061402f6080830186613976565b6001600160401b03851660408401528281036060840152613ebb8185613976565b61ffff861681526001600160a01b038516602082015260a06040820181905260009061407e90830186613976565b841515606084015282810360808401526140988185613976565b98975050505050505050565b600080604083850312156140b757600080fd5b505080516020909101519092909150565b600082198211156140db576140db613e3a565b500190565b6000602082840312156140f257600080fd5b81516115188161369d565b6000825161410f81846020870161394a565b9190910192915050565b61ffff8616815260a06020820152600061413660a0830187613976565b6001600160401b038616604084015282810360608401526141578186613976565b905082810360808401526140988185613976565b60008261417a5761417a613f7b565b500690565b61ffff8716815260c06020820152600061419c60c0830188613976565b82810360408401526141ae8188613976565b6001600160a01b0387811660608601528616608085015283810360a085015290506141d98185613976565b9998505050505050505050565b60ff60f81b8760f81b16815285600182015260006001600160401b0360c01b808760c01b166021840152856029840152808560c01b16604984015250825161423581605185016020870161394a565b91909101605101979650505050505050565b600061010061ffff8b1683528060208401526142658184018b613976565b6001600160401b038a166040850152606084018990526001600160a01b038816608085015260a0840187905283810360c085015290506142a58186613976565b9150508260e08301529998505050505050505050565b6060815260006142ce6060830186613976565b6001600160401b03949094166020830152506040015291905056fea2646970667358221220360476600b8493c94b7601adb841f628d69f1c4832aac975aa3acf8d358058a564736f6c634300080c0033",
  "devdoc": {
    "kind": "dev",
    "methods": {
      "circulatingSupply()": {
        "details": "returns the circulating amount of tokens on current chain"
      },
      "estimateSendFee(uint16,bytes32,uint256,bool,bytes)": {
        "details": "estimate send token `_tokenId` to (`_dstChainId`, `_toAddress`) _dstChainId - L0 defined chain id to send tokens too _toAddress - dynamic bytes array which contains the address to whom you are sending tokens to on the dstChain _amount - amount of the tokens to transfer _useZro - indicates to use zro to pay L0 fees _adapterParam - flexible bytes array to indicate messaging adapter services in L0"
      },
      "owner()": {
        "details": "Returns the address of the current owner."
      },
      "renounceOwnership()": {
        "details": "Leaves the contract without owner. It will not be possible to call `onlyOwner` functions anymore. Can only be called by the current owner. NOTE: Renouncing ownership will leave the contract without an owner, thereby removing any functionality that is only available to the owner."
      },
      "sendFrom(address,uint16,bytes32,uint256,uint256,(address,address,bytes))": {
        "details": "send `_amount` amount of token to (`_dstChainId`, `_toAddress`) from `_from` `_from` the owner of token `_dstChainId` the destination chain identifier `_toAddress` can be any size depending on the `dstChainId`. `_amount` the quantity of tokens in wei `_minAmount` the minimum amount of tokens to receive on dstChain `_refundAddress` the address LayerZero refunds if too much message fee is sent `_zroPaymentAddress` set to address(0x0) if not paying in ZRO (LayerZero Token) `_adapterParams` is a flexible bytes array to indicate messaging adapter services"
      },
      "token()": {
        "details": "returns the address of the ERC20 token"
      },
      "transferOwnership(address)": {
        "details": "Transfers ownership of the contract to a new account (`newOwner`). Can only be called by the current owner."
      }
    },
    "title": "Gravita Layer Zero Proxy",
    "version": 1
  },
  "userdoc": {
    "kind": "user",
    "methods": {},
    "notice": "Use this contract only on the BASE CHAIN. It locks tokens on source, on outgoing send(), and unlocks tokens when receiving from other chains.",
    "version": 1
  },
  "storageLayout": {
    "storage": [
      {
        "astId": 4047,
        "contract": "contracts/examples/GravitaProxy.sol:GravitaProxy",
        "label": "_owner",
        "offset": 0,
        "slot": "0",
        "type": "t_address"
      },
      {
        "astId": 14402,
        "contract": "contracts/examples/GravitaProxy.sol:GravitaProxy",
        "label": "trustedRemoteLookup",
        "offset": 0,
        "slot": "1",
        "type": "t_mapping(t_uint16,t_bytes_storage)"
      },
      {
        "astId": 14408,
        "contract": "contracts/examples/GravitaProxy.sol:GravitaProxy",
        "label": "minDstGasLookup",
        "offset": 0,
        "slot": "2",
        "type": "t_mapping(t_uint16,t_mapping(t_uint16,t_uint256))"
      },
      {
        "astId": 14412,
        "contract": "contracts/examples/GravitaProxy.sol:GravitaProxy",
        "label": "payloadSizeLimitLookup",
        "offset": 0,
        "slot": "3",
        "type": "t_mapping(t_uint16,t_uint256)"
      },
      {
        "astId": 14414,
        "contract": "contracts/examples/GravitaProxy.sol:GravitaProxy",
        "label": "precrime",
        "offset": 0,
        "slot": "4",
        "type": "t_address"
      },
      {
        "astId": 14951,
        "contract": "contracts/examples/GravitaProxy.sol:GravitaProxy",
        "label": "failedMessages",
        "offset": 0,
        "slot": "5",
        "type": "t_mapping(t_uint16,t_mapping(t_bytes_memory_ptr,t_mapping(t_uint64,t_bytes32)))"
      },
      {
        "astId": 20668,
        "contract": "contracts/examples/GravitaProxy.sol:GravitaProxy",
        "label": "useCustomAdapterParams",
        "offset": 0,
        "slot": "6",
        "type": "t_bool"
      },
      {
        "astId": 20676,
        "contract": "contracts/examples/GravitaProxy.sol:GravitaProxy",
        "label": "creditedPackets",
        "offset": 0,
        "slot": "7",
        "type": "t_mapping(t_uint16,t_mapping(t_bytes_memory_ptr,t_mapping(t_uint64,t_bool)))"
      },
      {
        "astId": 22530,
        "contract": "contracts/examples/GravitaProxy.sol:GravitaProxy",
        "label": "chainIdToFeeBps",
        "offset": 0,
        "slot": "8",
        "type": "t_mapping(t_uint16,t_struct(FeeConfig)22539_storage)"
      },
      {
        "astId": 22532,
        "contract": "contracts/examples/GravitaProxy.sol:GravitaProxy",
        "label": "defaultFeeBp",
        "offset": 0,
        "slot": "9",
        "type": "t_uint16"
      },
      {
        "astId": 22534,
        "contract": "contracts/examples/GravitaProxy.sol:GravitaProxy",
        "label": "feeOwner",
        "offset": 2,
        "slot": "9",
        "type": "t_address"
      }
    ],
    "types": {
      "t_address": {
        "encoding": "inplace",
        "label": "address",
        "numberOfBytes": "20"
      },
      "t_bool": {
        "encoding": "inplace",
        "label": "bool",
        "numberOfBytes": "1"
      },
      "t_bytes32": {
        "encoding": "inplace",
        "label": "bytes32",
        "numberOfBytes": "32"
      },
      "t_bytes_memory_ptr": {
        "encoding": "bytes",
        "label": "bytes",
        "numberOfBytes": "32"
      },
      "t_bytes_storage": {
        "encoding": "bytes",
        "label": "bytes",
        "numberOfBytes": "32"
      },
      "t_mapping(t_bytes_memory_ptr,t_mapping(t_uint64,t_bool))": {
        "encoding": "mapping",
        "key": "t_bytes_memory_ptr",
        "label": "mapping(bytes => mapping(uint64 => bool))",
        "numberOfBytes": "32",
        "value": "t_mapping(t_uint64,t_bool)"
      },
      "t_mapping(t_bytes_memory_ptr,t_mapping(t_uint64,t_bytes32))": {
        "encoding": "mapping",
        "key": "t_bytes_memory_ptr",
        "label": "mapping(bytes => mapping(uint64 => bytes32))",
        "numberOfBytes": "32",
        "value": "t_mapping(t_uint64,t_bytes32)"
      },
      "t_mapping(t_uint16,t_bytes_storage)": {
        "encoding": "mapping",
        "key": "t_uint16",
        "label": "mapping(uint16 => bytes)",
        "numberOfBytes": "32",
        "value": "t_bytes_storage"
      },
      "t_mapping(t_uint16,t_mapping(t_bytes_memory_ptr,t_mapping(t_uint64,t_bool)))": {
        "encoding": "mapping",
        "key": "t_uint16",
        "label": "mapping(uint16 => mapping(bytes => mapping(uint64 => bool)))",
        "numberOfBytes": "32",
        "value": "t_mapping(t_bytes_memory_ptr,t_mapping(t_uint64,t_bool))"
      },
      "t_mapping(t_uint16,t_mapping(t_bytes_memory_ptr,t_mapping(t_uint64,t_bytes32)))": {
        "encoding": "mapping",
        "key": "t_uint16",
        "label": "mapping(uint16 => mapping(bytes => mapping(uint64 => bytes32)))",
        "numberOfBytes": "32",
        "value": "t_mapping(t_bytes_memory_ptr,t_mapping(t_uint64,t_bytes32))"
      },
      "t_mapping(t_uint16,t_mapping(t_uint16,t_uint256))": {
        "encoding": "mapping",
        "key": "t_uint16",
        "label": "mapping(uint16 => mapping(uint16 => uint256))",
        "numberOfBytes": "32",
        "value": "t_mapping(t_uint16,t_uint256)"
      },
      "t_mapping(t_uint16,t_struct(FeeConfig)22539_storage)": {
        "encoding": "mapping",
        "key": "t_uint16",
        "label": "mapping(uint16 => struct Fee.FeeConfig)",
        "numberOfBytes": "32",
        "value": "t_struct(FeeConfig)22539_storage"
      },
      "t_mapping(t_uint16,t_uint256)": {
        "encoding": "mapping",
        "key": "t_uint16",
        "label": "mapping(uint16 => uint256)",
        "numberOfBytes": "32",
        "value": "t_uint256"
      },
      "t_mapping(t_uint64,t_bool)": {
        "encoding": "mapping",
        "key": "t_uint64",
        "label": "mapping(uint64 => bool)",
        "numberOfBytes": "32",
        "value": "t_bool"
      },
      "t_mapping(t_uint64,t_bytes32)": {
        "encoding": "mapping",
        "key": "t_uint64",
        "label": "mapping(uint64 => bytes32)",
        "numberOfBytes": "32",
        "value": "t_bytes32"
      },
      "t_struct(FeeConfig)22539_storage": {
        "encoding": "inplace",
        "label": "struct Fee.FeeConfig",
        "members": [
          {
            "astId": 22536,
            "contract": "contracts/examples/GravitaProxy.sol:GravitaProxy",
            "label": "feeBP",
            "offset": 0,
            "slot": "0",
            "type": "t_uint16"
          },
          {
            "astId": 22538,
            "contract": "contracts/examples/GravitaProxy.sol:GravitaProxy",
            "label": "enabled",
            "offset": 2,
            "slot": "0",
            "type": "t_bool"
          }
        ],
        "numberOfBytes": "32"
      },
      "t_uint16": {
        "encoding": "inplace",
        "label": "uint16",
        "numberOfBytes": "2"
      },
      "t_uint256": {
        "encoding": "inplace",
        "label": "uint256",
        "numberOfBytes": "32"
      },
      "t_uint64": {
        "encoding": "inplace",
        "label": "uint64",
        "numberOfBytes": "8"
      }
    }
  }
}